{"contracts/SimpleViolationHandler.sol":{"SimpleViolationHandler":{"abi":[{"inputs":[],"stateMutability":"nonpayable","type":"constructor"},{"inputs":[],"name":"AlreadyPaid","type":"error"},{"inputs":[],"name":"AlreadyPauser","type":"error"},{"inputs":[],"name":"AlreadyProcessed","type":"error"},{"inputs":[],"name":"AmountMustBePositive","type":"error"},{"inputs":[],"name":"ContractPaused","type":"error"},{"inputs":[],"name":"InvalidViolationId","type":"error"},{"inputs":[],"name":"InvalidViolationType","type":"error"},{"inputs":[],"name":"LocationRequired","type":"error"},{"inputs":[],"name":"NotAPauser","type":"error"},{"inputs":[],"name":"Unauthorized","type":"error"},{"anonymous":false,"inputs":[{"indexed":false,"internalType":"uint8","name":"violationType","type":"uint8"},{"indexed":false,"internalType":"uint256","name":"newAmount","type":"uint256"}],"name":"FineAmountUpdated","type":"event"},{"anonymous":false,"inputs":[{"indexed":true,"internalType":"address","name":"pauser","type":"address"}],"name":"PauserAdded","type":"event"},{"anonymous":false,"inputs":[{"indexed":true,"internalType":"address","name":"pauser","type":"address"}],"name":"PauserRemoved","type":"event"},{"anonymous":false,"inputs":[{"indexed":true,"internalType":"uint32","name":"violationId","type":"uint32"},{"indexed":false,"internalType":"uint256","name":"timestamp","type":"uint256"}],"name":"PaymentSubmitted","type":"event"},{"anonymous":false,"inputs":[{"indexed":true,"internalType":"uint32","name":"violationId","type":"uint32"},{"indexed":false,"internalType":"bool","name":"paymentConfirmed","type":"bool"}],"name":"ViolationProcessed","type":"event"},{"anonymous":false,"inputs":[{"indexed":true,"internalType":"uint32","name":"violationId","type":"uint32"},{"indexed":true,"internalType":"address","name":"reporter","type":"address"},{"indexed":false,"internalType":"string","name":"location","type":"string"}],"name":"ViolationReported","type":"event"},{"inputs":[{"internalType":"address","name":"_pauser","type":"address"}],"name":"addPauser","outputs":[],"stateMutability":"nonpayable","type":"function"},{"inputs":[{"internalType":"uint8","name":"_violationType","type":"uint8"}],"name":"getBaseFine","outputs":[{"internalType":"uint256","name":"","type":"uint256"}],"stateMutability":"view","type":"function"},{"inputs":[{"internalType":"uint32","name":"_violationId","type":"uint32"}],"name":"getPaymentStatus","outputs":[{"internalType":"uint256","name":"timestamp","type":"uint256"},{"internalType":"bool","name":"verified","type":"bool"},{"internalType":"uint256","name":"amount","type":"uint256"}],"stateMutability":"view","type":"function"},{"inputs":[{"internalType":"address","name":"_reporter","type":"address"}],"name":"getReporterViolations","outputs":[{"internalType":"uint32[]","name":"","type":"uint32[]"}],"stateMutability":"view","type":"function"},{"inputs":[],"name":"getTotalViolations","outputs":[{"internalType":"uint32","name":"","type":"uint32"}],"stateMutability":"view","type":"function"},{"inputs":[{"internalType":"uint32","name":"_violationId","type":"uint32"}],"name":"getViolationInfo","outputs":[{"internalType":"string","name":"location","type":"string"},{"internalType":"uint256","name":"timestamp","type":"uint256"},{"internalType":"bool","name":"isPaid","type":"bool"},{"internalType":"bool","name":"isProcessed","type":"bool"},{"internalType":"address","name":"reporter","type":"address"},{"internalType":"uint256","name":"amount","type":"uint256"},{"internalType":"uint8","name":"violationType","type":"uint8"}],"stateMutability":"view","type":"function"},{"inputs":[{"internalType":"address","name":"_address","type":"address"}],"name":"isPauser","outputs":[{"internalType":"bool","name":"","type":"bool"}],"stateMutability":"view","type":"function"},{"inputs":[],"name":"owner","outputs":[{"internalType":"address","name":"","type":"address"}],"stateMutability":"view","type":"function"},{"inputs":[],"name":"paused","outputs":[{"internalType":"bool","name":"","type":"bool"}],"stateMutability":"view","type":"function"},{"inputs":[],"name":"pauserCount","outputs":[{"internalType":"uint256","name":"","type":"uint256"}],"stateMutability":"view","type":"function"},{"inputs":[{"internalType":"address","name":"","type":"address"}],"name":"pausers","outputs":[{"internalType":"bool","name":"","type":"bool"}],"stateMutability":"view","type":"function"},{"inputs":[{"internalType":"uint32","name":"","type":"uint32"}],"name":"payments","outputs":[{"internalType":"bytes32","name":"paymentId","type":"bytes32"},{"internalType":"uint256","name":"paymentAmount","type":"uint256"},{"internalType":"bool","name":"paymentValid","type":"bool"},{"internalType":"uint256","name":"timestamp","type":"uint256"},{"internalType":"bool","name":"verified","type":"bool"}],"stateMutability":"view","type":"function"},{"inputs":[{"internalType":"uint32","name":"_violationId","type":"uint32"}],"name":"processPayment","outputs":[],"stateMutability":"nonpayable","type":"function"},{"inputs":[{"internalType":"address","name":"_pauser","type":"address"}],"name":"removePauser","outputs":[],"stateMutability":"nonpayable","type":"function"},{"inputs":[{"internalType":"string","name":"_licensePlate","type":"string"},{"internalType":"uint8","name":"_violationType","type":"uint8"},{"internalType":"uint32","name":"_severityScore","type":"uint32"},{"internalType":"bool","name":"_isRepeatOffender","type":"bool"},{"internalType":"string","name":"_location","type":"string"}],"name":"reportViolation","outputs":[{"internalType":"uint32","name":"","type":"uint32"}],"stateMutability":"nonpayable","type":"function"},{"inputs":[{"internalType":"address","name":"","type":"address"},{"internalType":"uint256","name":"","type":"uint256"}],"name":"reporterViolations","outputs":[{"internalType":"uint32","name":"","type":"uint32"}],"stateMutability":"view","type":"function"},{"inputs":[{"internalType":"uint32","name":"_violationId","type":"uint32"},{"internalType":"bytes32","name":"_paymentId","type":"bytes32"}],"name":"submitPayment","outputs":[],"stateMutability":"payable","type":"function"},{"inputs":[],"name":"togglePause","outputs":[],"stateMutability":"nonpayable","type":"function"},{"inputs":[{"internalType":"uint8","name":"_violationType","type":"uint8"},{"internalType":"uint256","name":"_newAmount","type":"uint256"}],"name":"updateViolationFine","outputs":[],"stateMutability":"nonpayable","type":"function"},{"inputs":[{"internalType":"uint8","name":"","type":"uint8"}],"name":"violationBaseFines","outputs":[{"internalType":"uint256","name":"","type":"uint256"}],"stateMutability":"view","type":"function"},{"inputs":[],"name":"violationCounter","outputs":[{"internalType":"uint32","name":"","type":"uint32"}],"stateMutability":"view","type":"function"},{"inputs":[{"internalType":"uint32","name":"","type":"uint32"}],"name":"violations","outputs":[{"internalType":"bytes32","name":"licenseHash","type":"bytes32"},{"internalType":"uint256","name":"amount","type":"uint256"},{"internalType":"uint8","name":"violationType","type":"uint8"},{"internalType":"uint32","name":"severityScore","type":"uint32"},{"internalType":"bool","name":"isRepeat","type":"bool"},{"internalType":"string","name":"location","type":"string"},{"internalType":"uint256","name":"timestamp","type":"uint256"},{"internalType":"bool","name":"isPaid","type":"bool"},{"internalType":"bool","name":"isProcessed","type":"bool"},{"internalType":"address","name":"reporter","type":"address"}],"stateMutability":"view","type":"function"},{"inputs":[],"name":"withdraw","outputs":[],"stateMutability":"nonpayable","type":"function"},{"stateMutability":"payable","type":"receive"}],"devdoc":{"details":"This is a demonstration contract for violation reporting system","kind":"dev","methods":{},"title":"SimpleViolationHandler","version":1},"evm":{"bytecode":{"linkReferences":{},"object":"60806040526007805460ff19169055348015610019575f80fd5b505f80546001600160c01b0319163363ffffffff60a01b19811691909117825581526001602081815260408320805460ff1916831790556002919091556006905266038d7ea4c680007f3e5fec24aa4dc4e5aee2e025e51e1392c72a2500577559fae9665c6d52bd6a318190556601c6bf526340007f8819ef417987f8ae7a81f42cdfb18815282fe989326fbff903d13cf0e03ace295566071afd498d00007f75f96ab15d697e93042dc45b5c896c4b27e89bb6eaf39475c5c371cb2513f7d2557fc5069e24aaadb2addc3e52e868fcf3f4f8acf5a87e24300992fd4540c2a87eed556005815266044364c5bb00007fbfd358e93f18da3ed276c3afdbdba00b8f0b6008a03476a6a86bd6320ee6938b5561192f90819061013990395ff3fe60806040526004361061013f575f3560e01c806382dc1ec4116100b3578063d300cedf1161006d578063d300cedf146103fc578063d877f3d71461041b578063e900aaba14610447578063f52b2d2d14610469578063f5ccffde14610488578063f97ea61f1461049b575f80fd5b806382dc1ec41461030f578063883164471461032e5780638da5cb5b14610368578063c001c17a1461039e578063c4ae3168146103c9578063d2bf402b146103dd575f80fd5b806346fbf68e1161010457806346fbf68e1461020d5780635c975abb146102545780635d9cb8b11461026d5780636b2c0f551461028d5780637dd40399146102ac57806380f51c12146102e1575f80fd5b806302c945a91461014a578063206c01e51461018357806337be0eb5146101b55780633a4bc569146101e25780633ccfd60b146101f7575f80fd5b3661014657005b5f80fd5b348015610155575f80fd5b5061016961016436600461134c565b61051c565b60405163ffffffff90911681526020015b60405180910390f35b34801561018e575f80fd5b506101a261019d366004611387565b610560565b60405161017a97969594939291906113f4565b3480156101c0575f80fd5b506101d46101cf366004611453565b6106a7565b60405190815260200161017a565b3480156101ed575f80fd5b506101d460025481565b348015610202575f80fd5b5061020b6106f0565b005b348015610218575f80fd5b5061024461022736600461146c565b6001600160a01b03165f9081526001602052604090205460ff1690565b604051901515815260200161017a565b34801561025f575f80fd5b506007546102449060ff1681565b348015610278575f80fd5b505f54600160a01b900463ffffffff16610169565b348015610298575f80fd5b5061020b6102a736600461146c565b6107b6565b3480156102b7575f80fd5b506102cb6102c6366004611387565b61087f565b60405161017a9a99989796959493929190611485565b3480156102ec575f80fd5b506102446102fb36600461146c565b60016020525f908152604090205460ff1681565b34801561031a575f80fd5b5061020b61032936600461146c565b610976565b348015610339575f80fd5b5061034d610348366004611387565b610a45565b6040805193845291151560208401529082015260600161017a565b348015610373575f80fd5b505f54610386906001600160a01b031681565b6040516001600160a01b03909116815260200161017a565b3480156103a9575f80fd5b506101d46103b8366004611453565b60066020525f908152604090205481565b3480156103d4575f80fd5b5061020b610abf565b3480156103e8575f80fd5b5061020b6103f73660046114f6565b610b02565b348015610407575f80fd5b5061020b610416366004611387565b610bf3565b348015610426575f80fd5b5061043a61043536600461146c565b610d84565b60405161017a9190611510565b348015610452575f80fd5b505f5461016990600160a01b900463ffffffff1681565b348015610474575f80fd5b506101696104833660046115f6565b610e18565b61020b61049636600461168e565b611189565b3480156104a6575f80fd5b506104eb6104b5366004611387565b600460208190525f9182526040909120805460018201546002830154600384015493909401549193909260ff9182169290911685565b60405161017a9594939291909485526020850193909352901515604084015260608301521515608082015260a00190565b6005602052815f5260405f208181548110610535575f80fd5b905f5260205f209060089182820401919006600402915091509054906101000a900463ffffffff1681565b60605f80808080808763ffffffff8116158061058d57505f5463ffffffff600160a01b9091048116908216115b156105ab57604051630d31339b60e11b815260040160405180910390fd5b63ffffffff89165f908152600360208190526040909120600481015460058201546001830154600284015494840180549495909460ff808516946101008104821694620100009091046001600160a01b0316939092911690879061060e906116a8565b80601f016020809104026020016040519081016040528092919081815260200182805461063a906116a8565b80156106855780601f1061065c57610100808354040283529160200191610685565b820191905f5260205f20905b81548152906001019060200180831161066857829003601f168201915b5050505050965098509850985098509850985098505050919395979092949650565b5f60018260ff1610806106bd575060058260ff16115b156106db5760405163dbf4a40960e01b815260040160405180910390fd5b5060ff165f9081526006602052604090205490565b5f546001600160a01b03163314610719576040516282b42960e81b815260040160405180910390fd5b5f80546040514792916001600160a01b03169083908381818185875af1925050503d805f8114610764576040519150601f19603f3d011682016040523d82523d5f602084013e610769565b606091505b50509050806107b25760405162461bcd60e51b815260206004820152601160248201527015da5d1a191c985dd85b0819985a5b1959607a1b604482015260640160405180910390fd5b5050565b5f546001600160a01b031633146107df576040516282b42960e81b815260040160405180910390fd5b6001600160a01b0381165f9081526001602052604090205460ff16610817576040516318e3400d60e01b815260040160405180910390fd5b6001600160a01b0381165f908152600160205260408120805460ff191690556002805491610844836116f4565b90915550506040516001600160a01b038216907fcd265ebaf09df2871cc7bd4133404a235ba12eff2041bb89d9c714a2621c7c7e905f90a250565b600360208190525f918252604090912080546001820154600283015493830180549294919360ff8084169463ffffffff6101008604169465010000000000900490911692906108cd906116a8565b80601f01602080910402602001604051908101604052809291908181526020018280546108f9906116a8565b80156109445780601f1061091b57610100808354040283529160200191610944565b820191905f5260205f20905b81548152906001019060200180831161092757829003601f168201915b50505050600483015460059093015491929160ff8082169250610100820416906201000090046001600160a01b03168a565b5f546001600160a01b0316331461099f576040516282b42960e81b815260040160405180910390fd5b6001600160a01b0381165f9081526001602052604090205460ff16156109d85760405163070dddf760e01b815260040160405180910390fd5b6001600160a01b0381165f9081526001602081905260408220805460ff191690911790556002805491610a0a83611709565b90915550506040516001600160a01b038216907f6719d08c1888103bea251a4ed56406bd0c3e69723c8a1686e017e7bbe159b6f8905f90a250565b5f80808363ffffffff81161580610a6d57505f5463ffffffff600160a01b9091048116908216115b15610a8b57604051630d31339b60e11b815260040160405180910390fd5b5050505063ffffffff165f908152600460208190526040909120600381015491810154600190910154919260ff9091169190565b335f9081526001602052604090205460ff16610aee576040516318e3400d60e01b815260040160405180910390fd5b6007805460ff19811660ff90911615179055565b5f546001600160a01b03163314610b2b576040516282b42960e81b815260040160405180910390fd5b60075460ff1615610b4f5760405163ab35696f60e01b815260040160405180910390fd5b60018260ff161080610b64575060058260ff16115b15610b825760405163dbf4a40960e01b815260040160405180910390fd5b805f03610ba257604051632e11316f60e11b815260040160405180910390fd5b60ff82165f81815260066020908152604091829020849055815192835282018390527f69edbdf6e9ddd0f73ba21b03762562c07e99a8b1a24cbf65f7b4035b9058c8a5910160405180910390a15050565b5f546001600160a01b03163314610c1c576040516282b42960e81b815260040160405180910390fd5b8063ffffffff81161580610c4157505f5463ffffffff600160a01b9091048116908216115b15610c5f57604051630d31339b60e11b815260040160405180910390fd5b60075460ff1615610c835760405163ab35696f60e01b815260040160405180910390fd5b63ffffffff82165f90815260036020526040902060050154610100900460ff1615610cc157604051632bf773b360e11b815260040160405180910390fd5b63ffffffff82165f9081526004602052604081206003810154909103610cfa57604051630d31339b60e11b815260040160405180910390fd5b60028101805463ffffffff85165f81815260036020908152604091829020600501805461010061ffff1990911660ff968716151561ff00191617179055935460048601805460ff191691909416151590811790935551918252917fc2150472c60ae102e4a1bd9e9c86af0f19cdab9b534386d564f434646c8f0fd7910160405180910390a2505050565b6001600160a01b0381165f90815260056020908152604091829020805483518184028101840190945280845260609392830182828015610e0c57602002820191905f5260205f20905f905b82829054906101000a900463ffffffff1663ffffffff1681526020019060040190602082600301049283019260010382029150808411610dcf5790505b50505050509050919050565b6007545f9060ff1615610e3e5760405163ab35696f60e01b815260040160405180910390fd5b81515f03610e5f57604051637392b08560e01b815260040160405180910390fd5b60018560ff161080610e74575060058560ff16115b15610e925760405163dbf4a40960e01b815260040160405180910390fd5b5f8054600160a01b900463ffffffff16906014610eae83611721565b91906101000a81548163ffffffff021916908363ffffffff160217905550505f864233604051602001610ee393929190611743565b60408051601f19818403018152918152815160209283012060ff89165f90815260069093529082205490925090610f1b87606461177b565b63ffffffff1690505f6064610f30838561179f565b610f3a91906117bc565b90505f87610f485781610f53565b610f5382600261179f565b90506040518061014001604052808681526020018281526020018b60ff1681526020018a63ffffffff16815260200189151581526020018881526020014281526020015f151581526020015f15158152602001336001600160a01b031681525060035f8060149054906101000a900463ffffffff1663ffffffff1663ffffffff1681526020019081526020015f205f820151815f0155602082015181600101556040820151816002015f6101000a81548160ff021916908360ff16021790555060608201518160020160016101000a81548163ffffffff021916908363ffffffff16021790555060808201518160020160056101000a81548160ff02191690831515021790555060a082015181600301908161106f9190611827565b5060c082015160048083019190915560e08301516005928301805461010080870151610120909701516001600160a01b0316620100000262010000600160b01b0319971515820261ff00199515159590951661ffff1990931692909217939093179590951694909417909355335f818152602093845260408082208254815460018101835591845295832060088204018054600790921690950290960a63ffffffff600160a01b96879004811682029181021990971617909355549151909392909104909116907f5a0b534455413e0b81046b4a3435d4bd18962c6e157b0f544cd1b8a773ffc94c90611163908b906118e7565b60405180910390a350505f54600160a01b900463ffffffff169998505050505050505050565b8163ffffffff811615806111ae57505f5463ffffffff600160a01b9091048116908216115b156111cc57604051630d31339b60e11b815260040160405180910390fd5b60075460ff16156111f05760405163ab35696f60e01b815260040160405180910390fd5b63ffffffff83165f9081526003602052604090206005015460ff161561122957604051630d70a0e360e41b815260040160405180910390fd5b63ffffffff83165f90815260036020526040902060050154610100900460ff161561126757604051632bf773b360e11b815260040160405180910390fd5b63ffffffff83165f818152600360208181526040808420600190810154825160a08101845289815234818601818152908311158286018181524260608501818152608086018c81528d8d526004808c529c8a902096518755945197860197909755905160028501805491151560ff1992831617905595519884019890985590519190970180549115159190931617909155905192835293917f751f179b9382790840ef56f51b05851a66cb4dd7272748adaacd378b6467f26f910160405180910390a25050505050565b80356001600160a01b0381168114611347575f80fd5b919050565b5f806040838503121561135d575f80fd5b61136683611331565b946020939093013593505050565b803563ffffffff81168114611347575f80fd5b5f60208284031215611397575f80fd5b6113a082611374565b9392505050565b5f5b838110156113c15781810151838201526020016113a9565b50505f910152565b5f81518084526113e08160208601602086016113a7565b601f01601f19169290920160200192915050565b60e081525f61140660e083018a6113c9565b602083019890985250941515604086015292151560608501526001600160a01b0391909116608084015260a083015260ff1660c090910152919050565b803560ff81168114611347575f80fd5b5f60208284031215611463575f80fd5b6113a082611443565b5f6020828403121561147c575f80fd5b6113a082611331565b5f6101408c83528b602084015260ff8b16604084015263ffffffff8a16606084015288151560808401528060a08401526114c1818401896113c9565b60c0840197909752505092151560e08401529015156101008301526001600160a01b0316610120909101529695505050505050565b5f8060408385031215611507575f80fd5b61136683611443565b602080825282518282018190525f9190848201906040850190845b8181101561154d57835163ffffffff168352928401929184019160010161152b565b50909695505050505050565b634e487b7160e01b5f52604160045260245ffd5b5f82601f83011261157c575f80fd5b813567ffffffffffffffff8082111561159757611597611559565b604051601f8301601f19908116603f011681019082821181831017156115bf576115bf611559565b816040528381528660208588010111156115d7575f80fd5b836020870160208301375f602085830101528094505050505092915050565b5f805f805f60a0868803121561160a575f80fd5b853567ffffffffffffffff80821115611621575f80fd5b61162d89838a0161156d565b965061163b60208901611443565b955061164960408901611374565b945060608801359150811515821461165f575f80fd5b90925060808701359080821115611674575f80fd5b506116818882890161156d565b9150509295509295909350565b5f806040838503121561169f575f80fd5b61136683611374565b600181811c908216806116bc57607f821691505b6020821081036116da57634e487b7160e01b5f52602260045260245ffd5b50919050565b634e487b7160e01b5f52601160045260245ffd5b5f81611702576117026116e0565b505f190190565b5f6001820161171a5761171a6116e0565b5060010190565b5f63ffffffff808316818103611739576117396116e0565b6001019392505050565b5f84516117548184602089016113a7565b919091019283525060601b6bffffffffffffffffffffffff19166020820152603401919050565b63ffffffff818116838216019080821115611798576117986116e0565b5092915050565b80820281158282048414176117b6576117b66116e0565b92915050565b5f826117d657634e487b7160e01b5f52601260045260245ffd5b500490565b601f82111561182257805f5260205f20601f840160051c810160208510156118005750805b601f840160051c820191505b8181101561181f575f815560010161180c565b50505b505050565b815167ffffffffffffffff81111561184157611841611559565b6118558161184f84546116a8565b846117db565b602080601f831160018114611888575f84156118715750858301515b5f19600386901b1c1916600185901b1785556118df565b5f85815260208120601f198616915b828110156118b657888601518255948401946001909101908401611897565b50858210156118d357878501515f19600388901b60f8161c191681555b505060018460011b0185555b505050505050565b602081525f6113a060208301846113c956fea26469706673582212208a549d724985f2a53937b14d613d62f8fb360f4c1f304cba39101081b831095064736f6c63430008180033","opcodes":"PUSH1 0x80 PUSH1 0x40 MSTORE PUSH1 0x7 DUP1 SLOAD PUSH1 0xFF NOT AND SWAP1 SSTORE CALLVALUE DUP1 ISZERO PUSH2 0x19 JUMPI PUSH0 DUP1 REVERT JUMPDEST POP PUSH0 DUP1 SLOAD PUSH1 0x1 PUSH1 0x1 PUSH1 0xC0 SHL SUB NOT AND CALLER PUSH4 0xFFFFFFFF PUSH1 0xA0 SHL NOT DUP2 AND SWAP2 SWAP1 SWAP2 OR DUP3 SSTORE DUP2 MSTORE PUSH1 0x1 PUSH1 0x20 DUP2 DUP2 MSTORE PUSH1 0x40 DUP4 KECCAK256 DUP1 SLOAD PUSH1 0xFF NOT AND DUP4 OR SWAP1 SSTORE PUSH1 0x2 SWAP2 SWAP1 SWAP2 SSTORE PUSH1 0x6 SWAP1 MSTORE PUSH7 0x38D7EA4C68000 PUSH32 0x3E5FEC24AA4DC4E5AEE2E025E51E1392C72A2500577559FAE9665C6D52BD6A31 DUP2 SWAP1 SSTORE PUSH7 0x1C6BF52634000 PUSH32 0x8819EF417987F8AE7A81F42CDFB18815282FE989326FBFF903D13CF0E03ACE29 SSTORE PUSH7 0x71AFD498D0000 PUSH32 0x75F96AB15D697E93042DC45B5C896C4B27E89BB6EAF39475C5C371CB2513F7D2 SSTORE PUSH32 0xC5069E24AAADB2ADDC3E52E868FCF3F4F8ACF5A87E24300992FD4540C2A87EED SSTORE PUSH1 0x5 DUP2 MSTORE PUSH7 0x44364C5BB0000 PUSH32 0xBFD358E93F18DA3ED276C3AFDBDBA00B8F0B6008A03476A6A86BD6320EE6938B SSTORE PUSH2 0x192F SWAP1 DUP2 SWAP1 PUSH2 0x139 SWAP1 CODECOPY PUSH0 RETURN INVALID PUSH1 0x80 PUSH1 0x40 MSTORE PUSH1 0x4 CALLDATASIZE LT PUSH2 0x13F JUMPI PUSH0 CALLDATALOAD PUSH1 0xE0 SHR DUP1 PUSH4 0x82DC1EC4 GT PUSH2 0xB3 JUMPI DUP1 PUSH4 0xD300CEDF GT PUSH2 0x6D JUMPI DUP1 PUSH4 0xD300CEDF EQ PUSH2 0x3FC JUMPI DUP1 PUSH4 0xD877F3D7 EQ PUSH2 0x41B JUMPI DUP1 PUSH4 0xE900AABA EQ PUSH2 0x447 JUMPI DUP1 PUSH4 0xF52B2D2D EQ PUSH2 0x469 JUMPI DUP1 PUSH4 0xF5CCFFDE EQ PUSH2 0x488 JUMPI DUP1 PUSH4 0xF97EA61F EQ PUSH2 0x49B JUMPI PUSH0 DUP1 REVERT JUMPDEST DUP1 PUSH4 0x82DC1EC4 EQ PUSH2 0x30F JUMPI DUP1 PUSH4 0x88316447 EQ PUSH2 0x32E JUMPI DUP1 PUSH4 0x8DA5CB5B EQ PUSH2 0x368 JUMPI DUP1 PUSH4 0xC001C17A EQ PUSH2 0x39E JUMPI DUP1 PUSH4 0xC4AE3168 EQ PUSH2 0x3C9 JUMPI DUP1 PUSH4 0xD2BF402B EQ PUSH2 0x3DD JUMPI PUSH0 DUP1 REVERT JUMPDEST DUP1 PUSH4 0x46FBF68E GT PUSH2 0x104 JUMPI DUP1 PUSH4 0x46FBF68E EQ PUSH2 0x20D JUMPI DUP1 PUSH4 0x5C975ABB EQ PUSH2 0x254 JUMPI DUP1 PUSH4 0x5D9CB8B1 EQ PUSH2 0x26D JUMPI DUP1 PUSH4 0x6B2C0F55 EQ PUSH2 0x28D JUMPI DUP1 PUSH4 0x7DD40399 EQ PUSH2 0x2AC JUMPI DUP1 PUSH4 0x80F51C12 EQ PUSH2 0x2E1 JUMPI PUSH0 DUP1 REVERT JUMPDEST DUP1 PUSH4 0x2C945A9 EQ PUSH2 0x14A JUMPI DUP1 PUSH4 0x206C01E5 EQ PUSH2 0x183 JUMPI DUP1 PUSH4 0x37BE0EB5 EQ PUSH2 0x1B5 JUMPI DUP1 PUSH4 0x3A4BC569 EQ PUSH2 0x1E2 JUMPI DUP1 PUSH4 0x3CCFD60B EQ PUSH2 0x1F7 JUMPI PUSH0 DUP1 REVERT JUMPDEST CALLDATASIZE PUSH2 0x146 JUMPI STOP JUMPDEST PUSH0 DUP1 REVERT JUMPDEST CALLVALUE DUP1 ISZERO PUSH2 0x155 JUMPI PUSH0 DUP1 REVERT JUMPDEST POP PUSH2 0x169 PUSH2 0x164 CALLDATASIZE PUSH1 0x4 PUSH2 0x134C JUMP JUMPDEST PUSH2 0x51C JUMP JUMPDEST PUSH1 0x40 MLOAD PUSH4 0xFFFFFFFF SWAP1 SWAP2 AND DUP2 MSTORE PUSH1 0x20 ADD JUMPDEST PUSH1 0x40 MLOAD DUP1 SWAP2 SUB SWAP1 RETURN JUMPDEST CALLVALUE DUP1 ISZERO PUSH2 0x18E JUMPI PUSH0 DUP1 REVERT JUMPDEST POP PUSH2 0x1A2 PUSH2 0x19D CALLDATASIZE PUSH1 0x4 PUSH2 0x1387 JUMP JUMPDEST PUSH2 0x560 JUMP JUMPDEST PUSH1 0x40 MLOAD PUSH2 0x17A SWAP8 SWAP7 SWAP6 SWAP5 SWAP4 SWAP3 SWAP2 SWAP1 PUSH2 0x13F4 JUMP JUMPDEST CALLVALUE DUP1 ISZERO PUSH2 0x1C0 JUMPI PUSH0 DUP1 REVERT JUMPDEST POP PUSH2 0x1D4 PUSH2 0x1CF CALLDATASIZE PUSH1 0x4 PUSH2 0x1453 JUMP JUMPDEST PUSH2 0x6A7 JUMP JUMPDEST PUSH1 0x40 MLOAD SWAP1 DUP2 MSTORE PUSH1 0x20 ADD PUSH2 0x17A JUMP JUMPDEST CALLVALUE DUP1 ISZERO PUSH2 0x1ED JUMPI PUSH0 DUP1 REVERT JUMPDEST POP PUSH2 0x1D4 PUSH1 0x2 SLOAD DUP2 JUMP JUMPDEST CALLVALUE DUP1 ISZERO PUSH2 0x202 JUMPI PUSH0 DUP1 REVERT JUMPDEST POP PUSH2 0x20B PUSH2 0x6F0 JUMP JUMPDEST STOP JUMPDEST CALLVALUE DUP1 ISZERO PUSH2 0x218 JUMPI PUSH0 DUP1 REVERT JUMPDEST POP PUSH2 0x244 PUSH2 0x227 CALLDATASIZE PUSH1 0x4 PUSH2 0x146C JUMP JUMPDEST PUSH1 0x1 PUSH1 0x1 PUSH1 0xA0 SHL SUB AND PUSH0 SWAP1 DUP2 MSTORE PUSH1 0x1 PUSH1 0x20 MSTORE PUSH1 0x40 SWAP1 KECCAK256 SLOAD PUSH1 0xFF AND SWAP1 JUMP JUMPDEST PUSH1 0x40 MLOAD SWAP1 ISZERO ISZERO DUP2 MSTORE PUSH1 0x20 ADD PUSH2 0x17A JUMP JUMPDEST CALLVALUE DUP1 ISZERO PUSH2 0x25F JUMPI PUSH0 DUP1 REVERT JUMPDEST POP PUSH1 0x7 SLOAD PUSH2 0x244 SWAP1 PUSH1 0xFF AND DUP2 JUMP JUMPDEST CALLVALUE DUP1 ISZERO PUSH2 0x278 JUMPI PUSH0 DUP1 REVERT JUMPDEST POP PUSH0 SLOAD PUSH1 0x1 PUSH1 0xA0 SHL SWAP1 DIV PUSH4 0xFFFFFFFF AND PUSH2 0x169 JUMP JUMPDEST CALLVALUE DUP1 ISZERO PUSH2 0x298 JUMPI PUSH0 DUP1 REVERT JUMPDEST POP PUSH2 0x20B PUSH2 0x2A7 CALLDATASIZE PUSH1 0x4 PUSH2 0x146C JUMP JUMPDEST PUSH2 0x7B6 JUMP JUMPDEST CALLVALUE DUP1 ISZERO PUSH2 0x2B7 JUMPI PUSH0 DUP1 REVERT JUMPDEST POP PUSH2 0x2CB PUSH2 0x2C6 CALLDATASIZE PUSH1 0x4 PUSH2 0x1387 JUMP JUMPDEST PUSH2 0x87F JUMP JUMPDEST PUSH1 0x40 MLOAD PUSH2 0x17A SWAP11 SWAP10 SWAP9 SWAP8 SWAP7 SWAP6 SWAP5 SWAP4 SWAP3 SWAP2 SWAP1 PUSH2 0x1485 JUMP JUMPDEST CALLVALUE DUP1 ISZERO PUSH2 0x2EC JUMPI PUSH0 DUP1 REVERT JUMPDEST POP PUSH2 0x244 PUSH2 0x2FB CALLDATASIZE PUSH1 0x4 PUSH2 0x146C JUMP JUMPDEST PUSH1 0x1 PUSH1 0x20 MSTORE PUSH0 SWAP1 DUP2 MSTORE PUSH1 0x40 SWAP1 KECCAK256 SLOAD PUSH1 0xFF AND DUP2 JUMP JUMPDEST CALLVALUE DUP1 ISZERO PUSH2 0x31A JUMPI PUSH0 DUP1 REVERT JUMPDEST POP PUSH2 0x20B PUSH2 0x329 CALLDATASIZE PUSH1 0x4 PUSH2 0x146C JUMP JUMPDEST PUSH2 0x976 JUMP JUMPDEST CALLVALUE DUP1 ISZERO PUSH2 0x339 JUMPI PUSH0 DUP1 REVERT JUMPDEST POP PUSH2 0x34D PUSH2 0x348 CALLDATASIZE PUSH1 0x4 PUSH2 0x1387 JUMP JUMPDEST PUSH2 0xA45 JUMP JUMPDEST PUSH1 0x40 DUP1 MLOAD SWAP4 DUP5 MSTORE SWAP2 ISZERO ISZERO PUSH1 0x20 DUP5 ADD MSTORE SWAP1 DUP3 ADD MSTORE PUSH1 0x60 ADD PUSH2 0x17A JUMP JUMPDEST CALLVALUE DUP1 ISZERO PUSH2 0x373 JUMPI PUSH0 DUP1 REVERT JUMPDEST POP PUSH0 SLOAD PUSH2 0x386 SWAP1 PUSH1 0x1 PUSH1 0x1 PUSH1 0xA0 SHL SUB AND DUP2 JUMP JUMPDEST PUSH1 0x40 MLOAD PUSH1 0x1 PUSH1 0x1 PUSH1 0xA0 SHL SUB SWAP1 SWAP2 AND DUP2 MSTORE PUSH1 0x20 ADD PUSH2 0x17A JUMP JUMPDEST CALLVALUE DUP1 ISZERO PUSH2 0x3A9 JUMPI PUSH0 DUP1 REVERT JUMPDEST POP PUSH2 0x1D4 PUSH2 0x3B8 CALLDATASIZE PUSH1 0x4 PUSH2 0x1453 JUMP JUMPDEST PUSH1 0x6 PUSH1 0x20 MSTORE PUSH0 SWAP1 DUP2 MSTORE PUSH1 0x40 SWAP1 KECCAK256 SLOAD DUP2 JUMP JUMPDEST CALLVALUE DUP1 ISZERO PUSH2 0x3D4 JUMPI PUSH0 DUP1 REVERT JUMPDEST POP PUSH2 0x20B PUSH2 0xABF JUMP JUMPDEST CALLVALUE DUP1 ISZERO PUSH2 0x3E8 JUMPI PUSH0 DUP1 REVERT JUMPDEST POP PUSH2 0x20B PUSH2 0x3F7 CALLDATASIZE PUSH1 0x4 PUSH2 0x14F6 JUMP JUMPDEST PUSH2 0xB02 JUMP JUMPDEST CALLVALUE DUP1 ISZERO PUSH2 0x407 JUMPI PUSH0 DUP1 REVERT JUMPDEST POP PUSH2 0x20B PUSH2 0x416 CALLDATASIZE PUSH1 0x4 PUSH2 0x1387 JUMP JUMPDEST PUSH2 0xBF3 JUMP JUMPDEST CALLVALUE DUP1 ISZERO PUSH2 0x426 JUMPI PUSH0 DUP1 REVERT JUMPDEST POP PUSH2 0x43A PUSH2 0x435 CALLDATASIZE PUSH1 0x4 PUSH2 0x146C JUMP JUMPDEST PUSH2 0xD84 JUMP JUMPDEST PUSH1 0x40 MLOAD PUSH2 0x17A SWAP2 SWAP1 PUSH2 0x1510 JUMP JUMPDEST CALLVALUE DUP1 ISZERO PUSH2 0x452 JUMPI PUSH0 DUP1 REVERT JUMPDEST POP PUSH0 SLOAD PUSH2 0x169 SWAP1 PUSH1 0x1 PUSH1 0xA0 SHL SWAP1 DIV PUSH4 0xFFFFFFFF AND DUP2 JUMP JUMPDEST CALLVALUE DUP1 ISZERO PUSH2 0x474 JUMPI PUSH0 DUP1 REVERT JUMPDEST POP PUSH2 0x169 PUSH2 0x483 CALLDATASIZE PUSH1 0x4 PUSH2 0x15F6 JUMP JUMPDEST PUSH2 0xE18 JUMP JUMPDEST PUSH2 0x20B PUSH2 0x496 CALLDATASIZE PUSH1 0x4 PUSH2 0x168E JUMP JUMPDEST PUSH2 0x1189 JUMP JUMPDEST CALLVALUE DUP1 ISZERO PUSH2 0x4A6 JUMPI PUSH0 DUP1 REVERT JUMPDEST POP PUSH2 0x4EB PUSH2 0x4B5 CALLDATASIZE PUSH1 0x4 PUSH2 0x1387 JUMP JUMPDEST PUSH1 0x4 PUSH1 0x20 DUP2 SWAP1 MSTORE PUSH0 SWAP2 DUP3 MSTORE PUSH1 0x40 SWAP1 SWAP2 KECCAK256 DUP1 SLOAD PUSH1 0x1 DUP3 ADD SLOAD PUSH1 0x2 DUP4 ADD SLOAD PUSH1 0x3 DUP5 ADD SLOAD SWAP4 SWAP1 SWAP5 ADD SLOAD SWAP2 SWAP4 SWAP1 SWAP3 PUSH1 0xFF SWAP2 DUP3 AND SWAP3 SWAP1 SWAP2 AND DUP6 JUMP JUMPDEST PUSH1 0x40 MLOAD PUSH2 0x17A SWAP6 SWAP5 SWAP4 SWAP3 SWAP2 SWAP1 SWAP5 DUP6 MSTORE PUSH1 0x20 DUP6 ADD SWAP4 SWAP1 SWAP4 MSTORE SWAP1 ISZERO ISZERO PUSH1 0x40 DUP5 ADD MSTORE PUSH1 0x60 DUP4 ADD MSTORE ISZERO ISZERO PUSH1 0x80 DUP3 ADD MSTORE PUSH1 0xA0 ADD SWAP1 JUMP JUMPDEST PUSH1 0x5 PUSH1 0x20 MSTORE DUP2 PUSH0 MSTORE PUSH1 0x40 PUSH0 KECCAK256 DUP2 DUP2 SLOAD DUP2 LT PUSH2 0x535 JUMPI PUSH0 DUP1 REVERT JUMPDEST SWAP1 PUSH0 MSTORE PUSH1 0x20 PUSH0 KECCAK256 SWAP1 PUSH1 0x8 SWAP2 DUP3 DUP3 DIV ADD SWAP2 SWAP1 MOD PUSH1 0x4 MUL SWAP2 POP SWAP2 POP SWAP1 SLOAD SWAP1 PUSH2 0x100 EXP SWAP1 DIV PUSH4 0xFFFFFFFF AND DUP2 JUMP JUMPDEST PUSH1 0x60 PUSH0 DUP1 DUP1 DUP1 DUP1 DUP1 DUP8 PUSH4 0xFFFFFFFF DUP2 AND ISZERO DUP1 PUSH2 0x58D JUMPI POP PUSH0 SLOAD PUSH4 0xFFFFFFFF PUSH1 0x1 PUSH1 0xA0 SHL SWAP1 SWAP2 DIV DUP2 AND SWAP1 DUP3 AND GT JUMPDEST ISZERO PUSH2 0x5AB JUMPI PUSH1 0x40 MLOAD PUSH4 0xD31339B PUSH1 0xE1 SHL DUP2 MSTORE PUSH1 0x4 ADD PUSH1 0x40 MLOAD DUP1 SWAP2 SUB SWAP1 REVERT JUMPDEST PUSH4 0xFFFFFFFF DUP10 AND PUSH0 SWAP1 DUP2 MSTORE PUSH1 0x3 PUSH1 0x20 DUP2 SWAP1 MSTORE PUSH1 0x40 SWAP1 SWAP2 KECCAK256 PUSH1 0x4 DUP2 ADD SLOAD PUSH1 0x5 DUP3 ADD SLOAD PUSH1 0x1 DUP4 ADD SLOAD PUSH1 0x2 DUP5 ADD SLOAD SWAP5 DUP5 ADD DUP1 SLOAD SWAP5 SWAP6 SWAP1 SWAP5 PUSH1 0xFF DUP1 DUP6 AND SWAP5 PUSH2 0x100 DUP2 DIV DUP3 AND SWAP5 PUSH3 0x10000 SWAP1 SWAP2 DIV PUSH1 0x1 PUSH1 0x1 PUSH1 0xA0 SHL SUB AND SWAP4 SWAP1 SWAP3 SWAP2 AND SWAP1 DUP8 SWAP1 PUSH2 0x60E SWAP1 PUSH2 0x16A8 JUMP JUMPDEST DUP1 PUSH1 0x1F ADD PUSH1 0x20 DUP1 SWAP2 DIV MUL PUSH1 0x20 ADD PUSH1 0x40 MLOAD SWAP1 DUP2 ADD PUSH1 0x40 MSTORE DUP1 SWAP3 SWAP2 SWAP1 DUP2 DUP2 MSTORE PUSH1 0x20 ADD DUP3 DUP1 SLOAD PUSH2 0x63A SWAP1 PUSH2 0x16A8 JUMP JUMPDEST DUP1 ISZERO PUSH2 0x685 JUMPI DUP1 PUSH1 0x1F LT PUSH2 0x65C JUMPI PUSH2 0x100 DUP1 DUP4 SLOAD DIV MUL DUP4 MSTORE SWAP2 PUSH1 0x20 ADD SWAP2 PUSH2 0x685 JUMP JUMPDEST DUP3 ADD SWAP2 SWAP1 PUSH0 MSTORE PUSH1 0x20 PUSH0 KECCAK256 SWAP1 JUMPDEST DUP2 SLOAD DUP2 MSTORE SWAP1 PUSH1 0x1 ADD SWAP1 PUSH1 0x20 ADD DUP1 DUP4 GT PUSH2 0x668 JUMPI DUP3 SWAP1 SUB PUSH1 0x1F AND DUP3 ADD SWAP2 JUMPDEST POP POP POP POP POP SWAP7 POP SWAP9 POP SWAP9 POP SWAP9 POP SWAP9 POP SWAP9 POP SWAP9 POP SWAP9 POP POP POP SWAP2 SWAP4 SWAP6 SWAP8 SWAP1 SWAP3 SWAP5 SWAP7 POP JUMP JUMPDEST PUSH0 PUSH1 0x1 DUP3 PUSH1 0xFF AND LT DUP1 PUSH2 0x6BD JUMPI POP PUSH1 0x5 DUP3 PUSH1 0xFF AND GT JUMPDEST ISZERO PUSH2 0x6DB JUMPI PUSH1 0x40 MLOAD PUSH4 0xDBF4A409 PUSH1 0xE0 SHL DUP2 MSTORE PUSH1 0x4 ADD PUSH1 0x40 MLOAD DUP1 SWAP2 SUB SWAP1 REVERT JUMPDEST POP PUSH1 0xFF AND PUSH0 SWAP1 DUP2 MSTORE PUSH1 0x6 PUSH1 0x20 MSTORE PUSH1 0x40 SWAP1 KECCAK256 SLOAD SWAP1 JUMP JUMPDEST PUSH0 SLOAD PUSH1 0x1 PUSH1 0x1 PUSH1 0xA0 SHL SUB AND CALLER EQ PUSH2 0x719 JUMPI PUSH1 0x40 MLOAD PUSH3 0x82B429 PUSH1 0xE8 SHL DUP2 MSTORE PUSH1 0x4 ADD PUSH1 0x40 MLOAD DUP1 SWAP2 SUB SWAP1 REVERT JUMPDEST PUSH0 DUP1 SLOAD PUSH1 0x40 MLOAD SELFBALANCE SWAP3 SWAP2 PUSH1 0x1 PUSH1 0x1 PUSH1 0xA0 SHL SUB AND SWAP1 DUP4 SWAP1 DUP4 DUP2 DUP2 DUP2 DUP6 DUP8 GAS CALL SWAP3 POP POP POP RETURNDATASIZE DUP1 PUSH0 DUP2 EQ PUSH2 0x764 JUMPI PUSH1 0x40 MLOAD SWAP2 POP PUSH1 0x1F NOT PUSH1 0x3F RETURNDATASIZE ADD AND DUP3 ADD PUSH1 0x40 MSTORE RETURNDATASIZE DUP3 MSTORE RETURNDATASIZE PUSH0 PUSH1 0x20 DUP5 ADD RETURNDATACOPY PUSH2 0x769 JUMP JUMPDEST PUSH1 0x60 SWAP2 POP JUMPDEST POP POP SWAP1 POP DUP1 PUSH2 0x7B2 JUMPI PUSH1 0x40 MLOAD PUSH3 0x461BCD PUSH1 0xE5 SHL DUP2 MSTORE PUSH1 0x20 PUSH1 0x4 DUP3 ADD MSTORE PUSH1 0x11 PUSH1 0x24 DUP3 ADD MSTORE PUSH17 0x15DA5D1A191C985DD85B0819985A5B1959 PUSH1 0x7A SHL PUSH1 0x44 DUP3 ADD MSTORE PUSH1 0x64 ADD PUSH1 0x40 MLOAD DUP1 SWAP2 SUB SWAP1 REVERT JUMPDEST POP POP JUMP JUMPDEST PUSH0 SLOAD PUSH1 0x1 PUSH1 0x1 PUSH1 0xA0 SHL SUB AND CALLER EQ PUSH2 0x7DF JUMPI PUSH1 0x40 MLOAD PUSH3 0x82B429 PUSH1 0xE8 SHL DUP2 MSTORE PUSH1 0x4 ADD PUSH1 0x40 MLOAD DUP1 SWAP2 SUB SWAP1 REVERT JUMPDEST PUSH1 0x1 PUSH1 0x1 PUSH1 0xA0 SHL SUB DUP2 AND PUSH0 SWAP1 DUP2 MSTORE PUSH1 0x1 PUSH1 0x20 MSTORE PUSH1 0x40 SWAP1 KECCAK256 SLOAD PUSH1 0xFF AND PUSH2 0x817 JUMPI PUSH1 0x40 MLOAD PUSH4 0x18E3400D PUSH1 0xE0 SHL DUP2 MSTORE PUSH1 0x4 ADD PUSH1 0x40 MLOAD DUP1 SWAP2 SUB SWAP1 REVERT JUMPDEST PUSH1 0x1 PUSH1 0x1 PUSH1 0xA0 SHL SUB DUP2 AND PUSH0 SWAP1 DUP2 MSTORE PUSH1 0x1 PUSH1 0x20 MSTORE PUSH1 0x40 DUP2 KECCAK256 DUP1 SLOAD PUSH1 0xFF NOT AND SWAP1 SSTORE PUSH1 0x2 DUP1 SLOAD SWAP2 PUSH2 0x844 DUP4 PUSH2 0x16F4 JUMP JUMPDEST SWAP1 SWAP2 SSTORE POP POP PUSH1 0x40 MLOAD PUSH1 0x1 PUSH1 0x1 PUSH1 0xA0 SHL SUB DUP3 AND SWAP1 PUSH32 0xCD265EBAF09DF2871CC7BD4133404A235BA12EFF2041BB89D9C714A2621C7C7E SWAP1 PUSH0 SWAP1 LOG2 POP JUMP JUMPDEST PUSH1 0x3 PUSH1 0x20 DUP2 SWAP1 MSTORE PUSH0 SWAP2 DUP3 MSTORE PUSH1 0x40 SWAP1 SWAP2 KECCAK256 DUP1 SLOAD PUSH1 0x1 DUP3 ADD SLOAD PUSH1 0x2 DUP4 ADD SLOAD SWAP4 DUP4 ADD DUP1 SLOAD SWAP3 SWAP5 SWAP2 SWAP4 PUSH1 0xFF DUP1 DUP5 AND SWAP5 PUSH4 0xFFFFFFFF PUSH2 0x100 DUP7 DIV AND SWAP5 PUSH6 0x10000000000 SWAP1 DIV SWAP1 SWAP2 AND SWAP3 SWAP1 PUSH2 0x8CD SWAP1 PUSH2 0x16A8 JUMP JUMPDEST DUP1 PUSH1 0x1F ADD PUSH1 0x20 DUP1 SWAP2 DIV MUL PUSH1 0x20 ADD PUSH1 0x40 MLOAD SWAP1 DUP2 ADD PUSH1 0x40 MSTORE DUP1 SWAP3 SWAP2 SWAP1 DUP2 DUP2 MSTORE PUSH1 0x20 ADD DUP3 DUP1 SLOAD PUSH2 0x8F9 SWAP1 PUSH2 0x16A8 JUMP JUMPDEST DUP1 ISZERO PUSH2 0x944 JUMPI DUP1 PUSH1 0x1F LT PUSH2 0x91B JUMPI PUSH2 0x100 DUP1 DUP4 SLOAD DIV MUL DUP4 MSTORE SWAP2 PUSH1 0x20 ADD SWAP2 PUSH2 0x944 JUMP JUMPDEST DUP3 ADD SWAP2 SWAP1 PUSH0 MSTORE PUSH1 0x20 PUSH0 KECCAK256 SWAP1 JUMPDEST DUP2 SLOAD DUP2 MSTORE SWAP1 PUSH1 0x1 ADD SWAP1 PUSH1 0x20 ADD DUP1 DUP4 GT PUSH2 0x927 JUMPI DUP3 SWAP1 SUB PUSH1 0x1F AND DUP3 ADD SWAP2 JUMPDEST POP POP POP POP PUSH1 0x4 DUP4 ADD SLOAD PUSH1 0x5 SWAP1 SWAP4 ADD SLOAD SWAP2 SWAP3 SWAP2 PUSH1 0xFF DUP1 DUP3 AND SWAP3 POP PUSH2 0x100 DUP3 DIV AND SWAP1 PUSH3 0x10000 SWAP1 DIV PUSH1 0x1 PUSH1 0x1 PUSH1 0xA0 SHL SUB AND DUP11 JUMP JUMPDEST PUSH0 SLOAD PUSH1 0x1 PUSH1 0x1 PUSH1 0xA0 SHL SUB AND CALLER EQ PUSH2 0x99F JUMPI PUSH1 0x40 MLOAD PUSH3 0x82B429 PUSH1 0xE8 SHL DUP2 MSTORE PUSH1 0x4 ADD PUSH1 0x40 MLOAD DUP1 SWAP2 SUB SWAP1 REVERT JUMPDEST PUSH1 0x1 PUSH1 0x1 PUSH1 0xA0 SHL SUB DUP2 AND PUSH0 SWAP1 DUP2 MSTORE PUSH1 0x1 PUSH1 0x20 MSTORE PUSH1 0x40 SWAP1 KECCAK256 SLOAD PUSH1 0xFF AND ISZERO PUSH2 0x9D8 JUMPI PUSH1 0x40 MLOAD PUSH4 0x70DDDF7 PUSH1 0xE0 SHL DUP2 MSTORE PUSH1 0x4 ADD PUSH1 0x40 MLOAD DUP1 SWAP2 SUB SWAP1 REVERT JUMPDEST PUSH1 0x1 PUSH1 0x1 PUSH1 0xA0 SHL SUB DUP2 AND PUSH0 SWAP1 DUP2 MSTORE PUSH1 0x1 PUSH1 0x20 DUP2 SWAP1 MSTORE PUSH1 0x40 DUP3 KECCAK256 DUP1 SLOAD PUSH1 0xFF NOT AND SWAP1 SWAP2 OR SWAP1 SSTORE PUSH1 0x2 DUP1 SLOAD SWAP2 PUSH2 0xA0A DUP4 PUSH2 0x1709 JUMP JUMPDEST SWAP1 SWAP2 SSTORE POP POP PUSH1 0x40 MLOAD PUSH1 0x1 PUSH1 0x1 PUSH1 0xA0 SHL SUB DUP3 AND SWAP1 PUSH32 0x6719D08C1888103BEA251A4ED56406BD0C3E69723C8A1686E017E7BBE159B6F8 SWAP1 PUSH0 SWAP1 LOG2 POP JUMP JUMPDEST PUSH0 DUP1 DUP1 DUP4 PUSH4 0xFFFFFFFF DUP2 AND ISZERO DUP1 PUSH2 0xA6D JUMPI POP PUSH0 SLOAD PUSH4 0xFFFFFFFF PUSH1 0x1 PUSH1 0xA0 SHL SWAP1 SWAP2 DIV DUP2 AND SWAP1 DUP3 AND GT JUMPDEST ISZERO PUSH2 0xA8B JUMPI PUSH1 0x40 MLOAD PUSH4 0xD31339B PUSH1 0xE1 SHL DUP2 MSTORE PUSH1 0x4 ADD PUSH1 0x40 MLOAD DUP1 SWAP2 SUB SWAP1 REVERT JUMPDEST POP POP POP POP PUSH4 0xFFFFFFFF AND PUSH0 SWAP1 DUP2 MSTORE PUSH1 0x4 PUSH1 0x20 DUP2 SWAP1 MSTORE PUSH1 0x40 SWAP1 SWAP2 KECCAK256 PUSH1 0x3 DUP2 ADD SLOAD SWAP2 DUP2 ADD SLOAD PUSH1 0x1 SWAP1 SWAP2 ADD SLOAD SWAP2 SWAP3 PUSH1 0xFF SWAP1 SWAP2 AND SWAP2 SWAP1 JUMP JUMPDEST CALLER PUSH0 SWAP1 DUP2 MSTORE PUSH1 0x1 PUSH1 0x20 MSTORE PUSH1 0x40 SWAP1 KECCAK256 SLOAD PUSH1 0xFF AND PUSH2 0xAEE JUMPI PUSH1 0x40 MLOAD PUSH4 0x18E3400D PUSH1 0xE0 SHL DUP2 MSTORE PUSH1 0x4 ADD PUSH1 0x40 MLOAD DUP1 SWAP2 SUB SWAP1 REVERT JUMPDEST PUSH1 0x7 DUP1 SLOAD PUSH1 0xFF NOT DUP2 AND PUSH1 0xFF SWAP1 SWAP2 AND ISZERO OR SWAP1 SSTORE JUMP JUMPDEST PUSH0 SLOAD PUSH1 0x1 PUSH1 0x1 PUSH1 0xA0 SHL SUB AND CALLER EQ PUSH2 0xB2B JUMPI PUSH1 0x40 MLOAD PUSH3 0x82B429 PUSH1 0xE8 SHL DUP2 MSTORE PUSH1 0x4 ADD PUSH1 0x40 MLOAD DUP1 SWAP2 SUB SWAP1 REVERT JUMPDEST PUSH1 0x7 SLOAD PUSH1 0xFF AND ISZERO PUSH2 0xB4F JUMPI PUSH1 0x40 MLOAD PUSH4 0xAB35696F PUSH1 0xE0 SHL DUP2 MSTORE PUSH1 0x4 ADD PUSH1 0x40 MLOAD DUP1 SWAP2 SUB SWAP1 REVERT JUMPDEST PUSH1 0x1 DUP3 PUSH1 0xFF AND LT DUP1 PUSH2 0xB64 JUMPI POP PUSH1 0x5 DUP3 PUSH1 0xFF AND GT JUMPDEST ISZERO PUSH2 0xB82 JUMPI PUSH1 0x40 MLOAD PUSH4 0xDBF4A409 PUSH1 0xE0 SHL DUP2 MSTORE PUSH1 0x4 ADD PUSH1 0x40 MLOAD DUP1 SWAP2 SUB SWAP1 REVERT JUMPDEST DUP1 PUSH0 SUB PUSH2 0xBA2 JUMPI PUSH1 0x40 MLOAD PUSH4 0x2E11316F PUSH1 0xE1 SHL DUP2 MSTORE PUSH1 0x4 ADD PUSH1 0x40 MLOAD DUP1 SWAP2 SUB SWAP1 REVERT JUMPDEST PUSH1 0xFF DUP3 AND PUSH0 DUP2 DUP2 MSTORE PUSH1 0x6 PUSH1 0x20 SWAP1 DUP2 MSTORE PUSH1 0x40 SWAP2 DUP3 SWAP1 KECCAK256 DUP5 SWAP1 SSTORE DUP2 MLOAD SWAP3 DUP4 MSTORE DUP3 ADD DUP4 SWAP1 MSTORE PUSH32 0x69EDBDF6E9DDD0F73BA21B03762562C07E99A8B1A24CBF65F7B4035B9058C8A5 SWAP2 ADD PUSH1 0x40 MLOAD DUP1 SWAP2 SUB SWAP1 LOG1 POP POP JUMP JUMPDEST PUSH0 SLOAD PUSH1 0x1 PUSH1 0x1 PUSH1 0xA0 SHL SUB AND CALLER EQ PUSH2 0xC1C JUMPI PUSH1 0x40 MLOAD PUSH3 0x82B429 PUSH1 0xE8 SHL DUP2 MSTORE PUSH1 0x4 ADD PUSH1 0x40 MLOAD DUP1 SWAP2 SUB SWAP1 REVERT JUMPDEST DUP1 PUSH4 0xFFFFFFFF DUP2 AND ISZERO DUP1 PUSH2 0xC41 JUMPI POP PUSH0 SLOAD PUSH4 0xFFFFFFFF PUSH1 0x1 PUSH1 0xA0 SHL SWAP1 SWAP2 DIV DUP2 AND SWAP1 DUP3 AND GT JUMPDEST ISZERO PUSH2 0xC5F JUMPI PUSH1 0x40 MLOAD PUSH4 0xD31339B PUSH1 0xE1 SHL DUP2 MSTORE PUSH1 0x4 ADD PUSH1 0x40 MLOAD DUP1 SWAP2 SUB SWAP1 REVERT JUMPDEST PUSH1 0x7 SLOAD PUSH1 0xFF AND ISZERO PUSH2 0xC83 JUMPI PUSH1 0x40 MLOAD PUSH4 0xAB35696F PUSH1 0xE0 SHL DUP2 MSTORE PUSH1 0x4 ADD PUSH1 0x40 MLOAD DUP1 SWAP2 SUB SWAP1 REVERT JUMPDEST PUSH4 0xFFFFFFFF DUP3 AND PUSH0 SWAP1 DUP2 MSTORE PUSH1 0x3 PUSH1 0x20 MSTORE PUSH1 0x40 SWAP1 KECCAK256 PUSH1 0x5 ADD SLOAD PUSH2 0x100 SWAP1 DIV PUSH1 0xFF AND ISZERO PUSH2 0xCC1 JUMPI PUSH1 0x40 MLOAD PUSH4 0x2BF773B3 PUSH1 0xE1 SHL DUP2 MSTORE PUSH1 0x4 ADD PUSH1 0x40 MLOAD DUP1 SWAP2 SUB SWAP1 REVERT JUMPDEST PUSH4 0xFFFFFFFF DUP3 AND PUSH0 SWAP1 DUP2 MSTORE PUSH1 0x4 PUSH1 0x20 MSTORE PUSH1 0x40 DUP2 KECCAK256 PUSH1 0x3 DUP2 ADD SLOAD SWAP1 SWAP2 SUB PUSH2 0xCFA JUMPI PUSH1 0x40 MLOAD PUSH4 0xD31339B PUSH1 0xE1 SHL DUP2 MSTORE PUSH1 0x4 ADD PUSH1 0x40 MLOAD DUP1 SWAP2 SUB SWAP1 REVERT JUMPDEST PUSH1 0x2 DUP2 ADD DUP1 SLOAD PUSH4 0xFFFFFFFF DUP6 AND PUSH0 DUP2 DUP2 MSTORE PUSH1 0x3 PUSH1 0x20 SWAP1 DUP2 MSTORE PUSH1 0x40 SWAP2 DUP3 SWAP1 KECCAK256 PUSH1 0x5 ADD DUP1 SLOAD PUSH2 0x100 PUSH2 0xFFFF NOT SWAP1 SWAP2 AND PUSH1 0xFF SWAP7 DUP8 AND ISZERO ISZERO PUSH2 0xFF00 NOT AND OR OR SWAP1 SSTORE SWAP4 SLOAD PUSH1 0x4 DUP7 ADD DUP1 SLOAD PUSH1 0xFF NOT AND SWAP2 SWAP1 SWAP5 AND ISZERO ISZERO SWAP1 DUP2 OR SWAP1 SWAP4 SSTORE MLOAD SWAP2 DUP3 MSTORE SWAP2 PUSH32 0xC2150472C60AE102E4A1BD9E9C86AF0F19CDAB9B534386D564F434646C8F0FD7 SWAP2 ADD PUSH1 0x40 MLOAD DUP1 SWAP2 SUB SWAP1 LOG2 POP POP POP JUMP JUMPDEST PUSH1 0x1 PUSH1 0x1 PUSH1 0xA0 SHL SUB DUP2 AND PUSH0 SWAP1 DUP2 MSTORE PUSH1 0x5 PUSH1 0x20 SWAP1 DUP2 MSTORE PUSH1 0x40 SWAP2 DUP3 SWAP1 KECCAK256 DUP1 SLOAD DUP4 MLOAD DUP2 DUP5 MUL DUP2 ADD DUP5 ADD SWAP1 SWAP5 MSTORE DUP1 DUP5 MSTORE PUSH1 0x60 SWAP4 SWAP3 DUP4 ADD DUP3 DUP3 DUP1 ISZERO PUSH2 0xE0C JUMPI PUSH1 0x20 MUL DUP3 ADD SWAP2 SWAP1 PUSH0 MSTORE PUSH1 0x20 PUSH0 KECCAK256 SWAP1 PUSH0 SWAP1 JUMPDEST DUP3 DUP3 SWAP1 SLOAD SWAP1 PUSH2 0x100 EXP SWAP1 DIV PUSH4 0xFFFFFFFF AND PUSH4 0xFFFFFFFF AND DUP2 MSTORE PUSH1 0x20 ADD SWAP1 PUSH1 0x4 ADD SWAP1 PUSH1 0x20 DUP3 PUSH1 0x3 ADD DIV SWAP3 DUP4 ADD SWAP3 PUSH1 0x1 SUB DUP3 MUL SWAP2 POP DUP1 DUP5 GT PUSH2 0xDCF JUMPI SWAP1 POP JUMPDEST POP POP POP POP POP SWAP1 POP SWAP2 SWAP1 POP JUMP JUMPDEST PUSH1 0x7 SLOAD PUSH0 SWAP1 PUSH1 0xFF AND ISZERO PUSH2 0xE3E JUMPI PUSH1 0x40 MLOAD PUSH4 0xAB35696F PUSH1 0xE0 SHL DUP2 MSTORE PUSH1 0x4 ADD PUSH1 0x40 MLOAD DUP1 SWAP2 SUB SWAP1 REVERT JUMPDEST DUP2 MLOAD PUSH0 SUB PUSH2 0xE5F JUMPI PUSH1 0x40 MLOAD PUSH4 0x7392B085 PUSH1 0xE0 SHL DUP2 MSTORE PUSH1 0x4 ADD PUSH1 0x40 MLOAD DUP1 SWAP2 SUB SWAP1 REVERT JUMPDEST PUSH1 0x1 DUP6 PUSH1 0xFF AND LT DUP1 PUSH2 0xE74 JUMPI POP PUSH1 0x5 DUP6 PUSH1 0xFF AND GT JUMPDEST ISZERO PUSH2 0xE92 JUMPI PUSH1 0x40 MLOAD PUSH4 0xDBF4A409 PUSH1 0xE0 SHL DUP2 MSTORE PUSH1 0x4 ADD PUSH1 0x40 MLOAD DUP1 SWAP2 SUB SWAP1 REVERT JUMPDEST PUSH0 DUP1 SLOAD PUSH1 0x1 PUSH1 0xA0 SHL SWAP1 DIV PUSH4 0xFFFFFFFF AND SWAP1 PUSH1 0x14 PUSH2 0xEAE DUP4 PUSH2 0x1721 JUMP JUMPDEST SWAP2 SWAP1 PUSH2 0x100 EXP DUP2 SLOAD DUP2 PUSH4 0xFFFFFFFF MUL NOT AND SWAP1 DUP4 PUSH4 0xFFFFFFFF AND MUL OR SWAP1 SSTORE POP POP PUSH0 DUP7 TIMESTAMP CALLER PUSH1 0x40 MLOAD PUSH1 0x20 ADD PUSH2 0xEE3 SWAP4 SWAP3 SWAP2 SWAP1 PUSH2 0x1743 JUMP JUMPDEST PUSH1 0x40 DUP1 MLOAD PUSH1 0x1F NOT DUP2 DUP5 SUB ADD DUP2 MSTORE SWAP2 DUP2 MSTORE DUP2 MLOAD PUSH1 0x20 SWAP3 DUP4 ADD KECCAK256 PUSH1 0xFF DUP10 AND PUSH0 SWAP1 DUP2 MSTORE PUSH1 0x6 SWAP1 SWAP4 MSTORE SWAP1 DUP3 KECCAK256 SLOAD SWAP1 SWAP3 POP SWAP1 PUSH2 0xF1B DUP8 PUSH1 0x64 PUSH2 0x177B JUMP JUMPDEST PUSH4 0xFFFFFFFF AND SWAP1 POP PUSH0 PUSH1 0x64 PUSH2 0xF30 DUP4 DUP6 PUSH2 0x179F JUMP JUMPDEST PUSH2 0xF3A SWAP2 SWAP1 PUSH2 0x17BC JUMP JUMPDEST SWAP1 POP PUSH0 DUP8 PUSH2 0xF48 JUMPI DUP2 PUSH2 0xF53 JUMP JUMPDEST PUSH2 0xF53 DUP3 PUSH1 0x2 PUSH2 0x179F JUMP JUMPDEST SWAP1 POP PUSH1 0x40 MLOAD DUP1 PUSH2 0x140 ADD PUSH1 0x40 MSTORE DUP1 DUP7 DUP2 MSTORE PUSH1 0x20 ADD DUP3 DUP2 MSTORE PUSH1 0x20 ADD DUP12 PUSH1 0xFF AND DUP2 MSTORE PUSH1 0x20 ADD DUP11 PUSH4 0xFFFFFFFF AND DUP2 MSTORE PUSH1 0x20 ADD DUP10 ISZERO ISZERO DUP2 MSTORE PUSH1 0x20 ADD DUP9 DUP2 MSTORE PUSH1 0x20 ADD TIMESTAMP DUP2 MSTORE PUSH1 0x20 ADD PUSH0 ISZERO ISZERO DUP2 MSTORE PUSH1 0x20 ADD PUSH0 ISZERO ISZERO DUP2 MSTORE PUSH1 0x20 ADD CALLER PUSH1 0x1 PUSH1 0x1 PUSH1 0xA0 SHL SUB AND DUP2 MSTORE POP PUSH1 0x3 PUSH0 DUP1 PUSH1 0x14 SWAP1 SLOAD SWAP1 PUSH2 0x100 EXP SWAP1 DIV PUSH4 0xFFFFFFFF AND PUSH4 0xFFFFFFFF AND PUSH4 0xFFFFFFFF AND DUP2 MSTORE PUSH1 0x20 ADD SWAP1 DUP2 MSTORE PUSH1 0x20 ADD PUSH0 KECCAK256 PUSH0 DUP3 ADD MLOAD DUP2 PUSH0 ADD SSTORE PUSH1 0x20 DUP3 ADD MLOAD DUP2 PUSH1 0x1 ADD SSTORE PUSH1 0x40 DUP3 ADD MLOAD DUP2 PUSH1 0x2 ADD PUSH0 PUSH2 0x100 EXP DUP2 SLOAD DUP2 PUSH1 0xFF MUL NOT AND SWAP1 DUP4 PUSH1 0xFF AND MUL OR SWAP1 SSTORE POP PUSH1 0x60 DUP3 ADD MLOAD DUP2 PUSH1 0x2 ADD PUSH1 0x1 PUSH2 0x100 EXP DUP2 SLOAD DUP2 PUSH4 0xFFFFFFFF MUL NOT AND SWAP1 DUP4 PUSH4 0xFFFFFFFF AND MUL OR SWAP1 SSTORE POP PUSH1 0x80 DUP3 ADD MLOAD DUP2 PUSH1 0x2 ADD PUSH1 0x5 PUSH2 0x100 EXP DUP2 SLOAD DUP2 PUSH1 0xFF MUL NOT AND SWAP1 DUP4 ISZERO ISZERO MUL OR SWAP1 SSTORE POP PUSH1 0xA0 DUP3 ADD MLOAD DUP2 PUSH1 0x3 ADD SWAP1 DUP2 PUSH2 0x106F SWAP2 SWAP1 PUSH2 0x1827 JUMP JUMPDEST POP PUSH1 0xC0 DUP3 ADD MLOAD PUSH1 0x4 DUP1 DUP4 ADD SWAP2 SWAP1 SWAP2 SSTORE PUSH1 0xE0 DUP4 ADD MLOAD PUSH1 0x5 SWAP3 DUP4 ADD DUP1 SLOAD PUSH2 0x100 DUP1 DUP8 ADD MLOAD PUSH2 0x120 SWAP1 SWAP8 ADD MLOAD PUSH1 0x1 PUSH1 0x1 PUSH1 0xA0 SHL SUB AND PUSH3 0x10000 MUL PUSH3 0x10000 PUSH1 0x1 PUSH1 0xB0 SHL SUB NOT SWAP8 ISZERO ISZERO DUP3 MUL PUSH2 0xFF00 NOT SWAP6 ISZERO ISZERO SWAP6 SWAP1 SWAP6 AND PUSH2 0xFFFF NOT SWAP1 SWAP4 AND SWAP3 SWAP1 SWAP3 OR SWAP4 SWAP1 SWAP4 OR SWAP6 SWAP1 SWAP6 AND SWAP5 SWAP1 SWAP5 OR SWAP1 SWAP4 SSTORE CALLER PUSH0 DUP2 DUP2 MSTORE PUSH1 0x20 SWAP4 DUP5 MSTORE PUSH1 0x40 DUP1 DUP3 KECCAK256 DUP3 SLOAD DUP2 SLOAD PUSH1 0x1 DUP2 ADD DUP4 SSTORE SWAP2 DUP5 MSTORE SWAP6 DUP4 KECCAK256 PUSH1 0x8 DUP3 DIV ADD DUP1 SLOAD PUSH1 0x7 SWAP1 SWAP3 AND SWAP1 SWAP6 MUL SWAP1 SWAP7 EXP PUSH4 0xFFFFFFFF PUSH1 0x1 PUSH1 0xA0 SHL SWAP7 DUP8 SWAP1 DIV DUP2 AND DUP3 MUL SWAP2 DUP2 MUL NOT SWAP1 SWAP8 AND OR SWAP1 SWAP4 SSTORE SLOAD SWAP2 MLOAD SWAP1 SWAP4 SWAP3 SWAP1 SWAP2 DIV SWAP1 SWAP2 AND SWAP1 PUSH32 0x5A0B534455413E0B81046B4A3435D4BD18962C6E157B0F544CD1B8A773FFC94C SWAP1 PUSH2 0x1163 SWAP1 DUP12 SWAP1 PUSH2 0x18E7 JUMP JUMPDEST PUSH1 0x40 MLOAD DUP1 SWAP2 SUB SWAP1 LOG3 POP POP PUSH0 SLOAD PUSH1 0x1 PUSH1 0xA0 SHL SWAP1 DIV PUSH4 0xFFFFFFFF AND SWAP10 SWAP9 POP POP POP POP POP POP POP POP POP JUMP JUMPDEST DUP2 PUSH4 0xFFFFFFFF DUP2 AND ISZERO DUP1 PUSH2 0x11AE JUMPI POP PUSH0 SLOAD PUSH4 0xFFFFFFFF PUSH1 0x1 PUSH1 0xA0 SHL SWAP1 SWAP2 DIV DUP2 AND SWAP1 DUP3 AND GT JUMPDEST ISZERO PUSH2 0x11CC JUMPI PUSH1 0x40 MLOAD PUSH4 0xD31339B PUSH1 0xE1 SHL DUP2 MSTORE PUSH1 0x4 ADD PUSH1 0x40 MLOAD DUP1 SWAP2 SUB SWAP1 REVERT JUMPDEST PUSH1 0x7 SLOAD PUSH1 0xFF AND ISZERO PUSH2 0x11F0 JUMPI PUSH1 0x40 MLOAD PUSH4 0xAB35696F PUSH1 0xE0 SHL DUP2 MSTORE PUSH1 0x4 ADD PUSH1 0x40 MLOAD DUP1 SWAP2 SUB SWAP1 REVERT JUMPDEST PUSH4 0xFFFFFFFF DUP4 AND PUSH0 SWAP1 DUP2 MSTORE PUSH1 0x3 PUSH1 0x20 MSTORE PUSH1 0x40 SWAP1 KECCAK256 PUSH1 0x5 ADD SLOAD PUSH1 0xFF AND ISZERO PUSH2 0x1229 JUMPI PUSH1 0x40 MLOAD PUSH4 0xD70A0E3 PUSH1 0xE4 SHL DUP2 MSTORE PUSH1 0x4 ADD PUSH1 0x40 MLOAD DUP1 SWAP2 SUB SWAP1 REVERT JUMPDEST PUSH4 0xFFFFFFFF DUP4 AND PUSH0 SWAP1 DUP2 MSTORE PUSH1 0x3 PUSH1 0x20 MSTORE PUSH1 0x40 SWAP1 KECCAK256 PUSH1 0x5 ADD SLOAD PUSH2 0x100 SWAP1 DIV PUSH1 0xFF AND ISZERO PUSH2 0x1267 JUMPI PUSH1 0x40 MLOAD PUSH4 0x2BF773B3 PUSH1 0xE1 SHL DUP2 MSTORE PUSH1 0x4 ADD PUSH1 0x40 MLOAD DUP1 SWAP2 SUB SWAP1 REVERT JUMPDEST PUSH4 0xFFFFFFFF DUP4 AND PUSH0 DUP2 DUP2 MSTORE PUSH1 0x3 PUSH1 0x20 DUP2 DUP2 MSTORE PUSH1 0x40 DUP1 DUP5 KECCAK256 PUSH1 0x1 SWAP1 DUP2 ADD SLOAD DUP3 MLOAD PUSH1 0xA0 DUP2 ADD DUP5 MSTORE DUP10 DUP2 MSTORE CALLVALUE DUP2 DUP7 ADD DUP2 DUP2 MSTORE SWAP1 DUP4 GT ISZERO DUP3 DUP7 ADD DUP2 DUP2 MSTORE TIMESTAMP PUSH1 0x60 DUP6 ADD DUP2 DUP2 MSTORE PUSH1 0x80 DUP7 ADD DUP13 DUP2 MSTORE DUP14 DUP14 MSTORE PUSH1 0x4 DUP1 DUP13 MSTORE SWAP13 DUP11 SWAP1 KECCAK256 SWAP7 MLOAD DUP8 SSTORE SWAP5 MLOAD SWAP8 DUP7 ADD SWAP8 SWAP1 SWAP8 SSTORE SWAP1 MLOAD PUSH1 0x2 DUP6 ADD DUP1 SLOAD SWAP2 ISZERO ISZERO PUSH1 0xFF NOT SWAP3 DUP4 AND OR SWAP1 SSTORE SWAP6 MLOAD SWAP9 DUP5 ADD SWAP9 SWAP1 SWAP9 SSTORE SWAP1 MLOAD SWAP2 SWAP1 SWAP8 ADD DUP1 SLOAD SWAP2 ISZERO ISZERO SWAP2 SWAP1 SWAP4 AND OR SWAP1 SWAP2 SSTORE SWAP1 MLOAD SWAP3 DUP4 MSTORE SWAP4 SWAP2 PUSH32 0x751F179B9382790840EF56F51B05851A66CB4DD7272748ADAACD378B6467F26F SWAP2 ADD PUSH1 0x40 MLOAD DUP1 SWAP2 SUB SWAP1 LOG2 POP POP POP POP POP JUMP JUMPDEST DUP1 CALLDATALOAD PUSH1 0x1 PUSH1 0x1 PUSH1 0xA0 SHL SUB DUP2 AND DUP2 EQ PUSH2 0x1347 JUMPI PUSH0 DUP1 REVERT JUMPDEST SWAP2 SWAP1 POP JUMP JUMPDEST PUSH0 DUP1 PUSH1 0x40 DUP4 DUP6 SUB SLT ISZERO PUSH2 0x135D JUMPI PUSH0 DUP1 REVERT JUMPDEST PUSH2 0x1366 DUP4 PUSH2 0x1331 JUMP JUMPDEST SWAP5 PUSH1 0x20 SWAP4 SWAP1 SWAP4 ADD CALLDATALOAD SWAP4 POP POP POP JUMP JUMPDEST DUP1 CALLDATALOAD PUSH4 0xFFFFFFFF DUP2 AND DUP2 EQ PUSH2 0x1347 JUMPI PUSH0 DUP1 REVERT JUMPDEST PUSH0 PUSH1 0x20 DUP3 DUP5 SUB SLT ISZERO PUSH2 0x1397 JUMPI PUSH0 DUP1 REVERT JUMPDEST PUSH2 0x13A0 DUP3 PUSH2 0x1374 JUMP JUMPDEST SWAP4 SWAP3 POP POP POP JUMP JUMPDEST PUSH0 JUMPDEST DUP4 DUP2 LT ISZERO PUSH2 0x13C1 JUMPI DUP2 DUP2 ADD MLOAD DUP4 DUP3 ADD MSTORE PUSH1 0x20 ADD PUSH2 0x13A9 JUMP JUMPDEST POP POP PUSH0 SWAP2 ADD MSTORE JUMP JUMPDEST PUSH0 DUP2 MLOAD DUP1 DUP5 MSTORE PUSH2 0x13E0 DUP2 PUSH1 0x20 DUP7 ADD PUSH1 0x20 DUP7 ADD PUSH2 0x13A7 JUMP JUMPDEST PUSH1 0x1F ADD PUSH1 0x1F NOT AND SWAP3 SWAP1 SWAP3 ADD PUSH1 0x20 ADD SWAP3 SWAP2 POP POP JUMP JUMPDEST PUSH1 0xE0 DUP2 MSTORE PUSH0 PUSH2 0x1406 PUSH1 0xE0 DUP4 ADD DUP11 PUSH2 0x13C9 JUMP JUMPDEST PUSH1 0x20 DUP4 ADD SWAP9 SWAP1 SWAP9 MSTORE POP SWAP5 ISZERO ISZERO PUSH1 0x40 DUP7 ADD MSTORE SWAP3 ISZERO ISZERO PUSH1 0x60 DUP6 ADD MSTORE PUSH1 0x1 PUSH1 0x1 PUSH1 0xA0 SHL SUB SWAP2 SWAP1 SWAP2 AND PUSH1 0x80 DUP5 ADD MSTORE PUSH1 0xA0 DUP4 ADD MSTORE PUSH1 0xFF AND PUSH1 0xC0 SWAP1 SWAP2 ADD MSTORE SWAP2 SWAP1 POP JUMP JUMPDEST DUP1 CALLDATALOAD PUSH1 0xFF DUP2 AND DUP2 EQ PUSH2 0x1347 JUMPI PUSH0 DUP1 REVERT JUMPDEST PUSH0 PUSH1 0x20 DUP3 DUP5 SUB SLT ISZERO PUSH2 0x1463 JUMPI PUSH0 DUP1 REVERT JUMPDEST PUSH2 0x13A0 DUP3 PUSH2 0x1443 JUMP JUMPDEST PUSH0 PUSH1 0x20 DUP3 DUP5 SUB SLT ISZERO PUSH2 0x147C JUMPI PUSH0 DUP1 REVERT JUMPDEST PUSH2 0x13A0 DUP3 PUSH2 0x1331 JUMP JUMPDEST PUSH0 PUSH2 0x140 DUP13 DUP4 MSTORE DUP12 PUSH1 0x20 DUP5 ADD MSTORE PUSH1 0xFF DUP12 AND PUSH1 0x40 DUP5 ADD MSTORE PUSH4 0xFFFFFFFF DUP11 AND PUSH1 0x60 DUP5 ADD MSTORE DUP9 ISZERO ISZERO PUSH1 0x80 DUP5 ADD MSTORE DUP1 PUSH1 0xA0 DUP5 ADD MSTORE PUSH2 0x14C1 DUP2 DUP5 ADD DUP10 PUSH2 0x13C9 JUMP JUMPDEST PUSH1 0xC0 DUP5 ADD SWAP8 SWAP1 SWAP8 MSTORE POP POP SWAP3 ISZERO ISZERO PUSH1 0xE0 DUP5 ADD MSTORE SWAP1 ISZERO ISZERO PUSH2 0x100 DUP4 ADD MSTORE PUSH1 0x1 PUSH1 0x1 PUSH1 0xA0 SHL SUB AND PUSH2 0x120 SWAP1 SWAP2 ADD MSTORE SWAP7 SWAP6 POP POP POP POP POP POP JUMP JUMPDEST PUSH0 DUP1 PUSH1 0x40 DUP4 DUP6 SUB SLT ISZERO PUSH2 0x1507 JUMPI PUSH0 DUP1 REVERT JUMPDEST PUSH2 0x1366 DUP4 PUSH2 0x1443 JUMP JUMPDEST PUSH1 0x20 DUP1 DUP3 MSTORE DUP3 MLOAD DUP3 DUP3 ADD DUP2 SWAP1 MSTORE PUSH0 SWAP2 SWAP1 DUP5 DUP3 ADD SWAP1 PUSH1 0x40 DUP6 ADD SWAP1 DUP5 JUMPDEST DUP2 DUP2 LT ISZERO PUSH2 0x154D JUMPI DUP4 MLOAD PUSH4 0xFFFFFFFF AND DUP4 MSTORE SWAP3 DUP5 ADD SWAP3 SWAP2 DUP5 ADD SWAP2 PUSH1 0x1 ADD PUSH2 0x152B JUMP JUMPDEST POP SWAP1 SWAP7 SWAP6 POP POP POP POP POP POP JUMP JUMPDEST PUSH4 0x4E487B71 PUSH1 0xE0 SHL PUSH0 MSTORE PUSH1 0x41 PUSH1 0x4 MSTORE PUSH1 0x24 PUSH0 REVERT JUMPDEST PUSH0 DUP3 PUSH1 0x1F DUP4 ADD SLT PUSH2 0x157C JUMPI PUSH0 DUP1 REVERT JUMPDEST DUP2 CALLDATALOAD PUSH8 0xFFFFFFFFFFFFFFFF DUP1 DUP3 GT ISZERO PUSH2 0x1597 JUMPI PUSH2 0x1597 PUSH2 0x1559 JUMP JUMPDEST PUSH1 0x40 MLOAD PUSH1 0x1F DUP4 ADD PUSH1 0x1F NOT SWAP1 DUP2 AND PUSH1 0x3F ADD AND DUP2 ADD SWAP1 DUP3 DUP3 GT DUP2 DUP4 LT OR ISZERO PUSH2 0x15BF JUMPI PUSH2 0x15BF PUSH2 0x1559 JUMP JUMPDEST DUP2 PUSH1 0x40 MSTORE DUP4 DUP2 MSTORE DUP7 PUSH1 0x20 DUP6 DUP9 ADD ADD GT ISZERO PUSH2 0x15D7 JUMPI PUSH0 DUP1 REVERT JUMPDEST DUP4 PUSH1 0x20 DUP8 ADD PUSH1 0x20 DUP4 ADD CALLDATACOPY PUSH0 PUSH1 0x20 DUP6 DUP4 ADD ADD MSTORE DUP1 SWAP5 POP POP POP POP POP SWAP3 SWAP2 POP POP JUMP JUMPDEST PUSH0 DUP1 PUSH0 DUP1 PUSH0 PUSH1 0xA0 DUP7 DUP9 SUB SLT ISZERO PUSH2 0x160A JUMPI PUSH0 DUP1 REVERT JUMPDEST DUP6 CALLDATALOAD PUSH8 0xFFFFFFFFFFFFFFFF DUP1 DUP3 GT ISZERO PUSH2 0x1621 JUMPI PUSH0 DUP1 REVERT JUMPDEST PUSH2 0x162D DUP10 DUP4 DUP11 ADD PUSH2 0x156D JUMP JUMPDEST SWAP7 POP PUSH2 0x163B PUSH1 0x20 DUP10 ADD PUSH2 0x1443 JUMP JUMPDEST SWAP6 POP PUSH2 0x1649 PUSH1 0x40 DUP10 ADD PUSH2 0x1374 JUMP JUMPDEST SWAP5 POP PUSH1 0x60 DUP9 ADD CALLDATALOAD SWAP2 POP DUP2 ISZERO ISZERO DUP3 EQ PUSH2 0x165F JUMPI PUSH0 DUP1 REVERT JUMPDEST SWAP1 SWAP3 POP PUSH1 0x80 DUP8 ADD CALLDATALOAD SWAP1 DUP1 DUP3 GT ISZERO PUSH2 0x1674 JUMPI PUSH0 DUP1 REVERT JUMPDEST POP PUSH2 0x1681 DUP9 DUP3 DUP10 ADD PUSH2 0x156D JUMP JUMPDEST SWAP2 POP POP SWAP3 SWAP6 POP SWAP3 SWAP6 SWAP1 SWAP4 POP JUMP JUMPDEST PUSH0 DUP1 PUSH1 0x40 DUP4 DUP6 SUB SLT ISZERO PUSH2 0x169F JUMPI PUSH0 DUP1 REVERT JUMPDEST PUSH2 0x1366 DUP4 PUSH2 0x1374 JUMP JUMPDEST PUSH1 0x1 DUP2 DUP2 SHR SWAP1 DUP3 AND DUP1 PUSH2 0x16BC JUMPI PUSH1 0x7F DUP3 AND SWAP2 POP JUMPDEST PUSH1 0x20 DUP3 LT DUP2 SUB PUSH2 0x16DA JUMPI PUSH4 0x4E487B71 PUSH1 0xE0 SHL PUSH0 MSTORE PUSH1 0x22 PUSH1 0x4 MSTORE PUSH1 0x24 PUSH0 REVERT JUMPDEST POP SWAP2 SWAP1 POP JUMP JUMPDEST PUSH4 0x4E487B71 PUSH1 0xE0 SHL PUSH0 MSTORE PUSH1 0x11 PUSH1 0x4 MSTORE PUSH1 0x24 PUSH0 REVERT JUMPDEST PUSH0 DUP2 PUSH2 0x1702 JUMPI PUSH2 0x1702 PUSH2 0x16E0 JUMP JUMPDEST POP PUSH0 NOT ADD SWAP1 JUMP JUMPDEST PUSH0 PUSH1 0x1 DUP3 ADD PUSH2 0x171A JUMPI PUSH2 0x171A PUSH2 0x16E0 JUMP JUMPDEST POP PUSH1 0x1 ADD SWAP1 JUMP JUMPDEST PUSH0 PUSH4 0xFFFFFFFF DUP1 DUP4 AND DUP2 DUP2 SUB PUSH2 0x1739 JUMPI PUSH2 0x1739 PUSH2 0x16E0 JUMP JUMPDEST PUSH1 0x1 ADD SWAP4 SWAP3 POP POP POP JUMP JUMPDEST PUSH0 DUP5 MLOAD PUSH2 0x1754 DUP2 DUP5 PUSH1 0x20 DUP10 ADD PUSH2 0x13A7 JUMP JUMPDEST SWAP2 SWAP1 SWAP2 ADD SWAP3 DUP4 MSTORE POP PUSH1 0x60 SHL PUSH12 0xFFFFFFFFFFFFFFFFFFFFFFFF NOT AND PUSH1 0x20 DUP3 ADD MSTORE PUSH1 0x34 ADD SWAP2 SWAP1 POP JUMP JUMPDEST PUSH4 0xFFFFFFFF DUP2 DUP2 AND DUP4 DUP3 AND ADD SWAP1 DUP1 DUP3 GT ISZERO PUSH2 0x1798 JUMPI PUSH2 0x1798 PUSH2 0x16E0 JUMP JUMPDEST POP SWAP3 SWAP2 POP POP JUMP JUMPDEST DUP1 DUP3 MUL DUP2 ISZERO DUP3 DUP3 DIV DUP5 EQ OR PUSH2 0x17B6 JUMPI PUSH2 0x17B6 PUSH2 0x16E0 JUMP JUMPDEST SWAP3 SWAP2 POP POP JUMP JUMPDEST PUSH0 DUP3 PUSH2 0x17D6 JUMPI PUSH4 0x4E487B71 PUSH1 0xE0 SHL PUSH0 MSTORE PUSH1 0x12 PUSH1 0x4 MSTORE PUSH1 0x24 PUSH0 REVERT JUMPDEST POP DIV SWAP1 JUMP JUMPDEST PUSH1 0x1F DUP3 GT ISZERO PUSH2 0x1822 JUMPI DUP1 PUSH0 MSTORE PUSH1 0x20 PUSH0 KECCAK256 PUSH1 0x1F DUP5 ADD PUSH1 0x5 SHR DUP2 ADD PUSH1 0x20 DUP6 LT ISZERO PUSH2 0x1800 JUMPI POP DUP1 JUMPDEST PUSH1 0x1F DUP5 ADD PUSH1 0x5 SHR DUP3 ADD SWAP2 POP JUMPDEST DUP2 DUP2 LT ISZERO PUSH2 0x181F JUMPI PUSH0 DUP2 SSTORE PUSH1 0x1 ADD PUSH2 0x180C JUMP JUMPDEST POP POP JUMPDEST POP POP POP JUMP JUMPDEST DUP2 MLOAD PUSH8 0xFFFFFFFFFFFFFFFF DUP2 GT ISZERO PUSH2 0x1841 JUMPI PUSH2 0x1841 PUSH2 0x1559 JUMP JUMPDEST PUSH2 0x1855 DUP2 PUSH2 0x184F DUP5 SLOAD PUSH2 0x16A8 JUMP JUMPDEST DUP5 PUSH2 0x17DB JUMP JUMPDEST PUSH1 0x20 DUP1 PUSH1 0x1F DUP4 GT PUSH1 0x1 DUP2 EQ PUSH2 0x1888 JUMPI PUSH0 DUP5 ISZERO PUSH2 0x1871 JUMPI POP DUP6 DUP4 ADD MLOAD JUMPDEST PUSH0 NOT PUSH1 0x3 DUP7 SWAP1 SHL SHR NOT AND PUSH1 0x1 DUP6 SWAP1 SHL OR DUP6 SSTORE PUSH2 0x18DF JUMP JUMPDEST PUSH0 DUP6 DUP2 MSTORE PUSH1 0x20 DUP2 KECCAK256 PUSH1 0x1F NOT DUP7 AND SWAP2 JUMPDEST DUP3 DUP2 LT ISZERO PUSH2 0x18B6 JUMPI DUP9 DUP7 ADD MLOAD DUP3 SSTORE SWAP5 DUP5 ADD SWAP5 PUSH1 0x1 SWAP1 SWAP2 ADD SWAP1 DUP5 ADD PUSH2 0x1897 JUMP JUMPDEST POP DUP6 DUP3 LT ISZERO PUSH2 0x18D3 JUMPI DUP8 DUP6 ADD MLOAD PUSH0 NOT PUSH1 0x3 DUP9 SWAP1 SHL PUSH1 0xF8 AND SHR NOT AND DUP2 SSTORE JUMPDEST POP POP PUSH1 0x1 DUP5 PUSH1 0x1 SHL ADD DUP6 SSTORE JUMPDEST POP POP POP POP POP POP JUMP JUMPDEST PUSH1 0x20 DUP2 MSTORE PUSH0 PUSH2 0x13A0 PUSH1 0x20 DUP4 ADD DUP5 PUSH2 0x13C9 JUMP INVALID LOG2 PUSH5 0x6970667358 0x22 SLT KECCAK256 DUP11 SLOAD SWAP14 PUSH19 0x4985F2A53937B14D613D62F8FB360F4C1F304C 0xBA CODECOPY LT LT DUP2 0xB8 BALANCE MULMOD POP PUSH5 0x736F6C6343 STOP ADDMOD XOR STOP CALLER "},"gasEstimates":{"creation":{"codeDepositCost":"1289400","executionCost":"206779","totalCost":"1496179"},"external":{"addPauser(address)":"54443","getBaseFine(uint8)":"2660","getPaymentStatus(uint32)":"9079","getReporterViolations(address)":"infinite","getTotalViolations()":"2378","getViolationInfo(uint32)":"infinite","isPauser(address)":"2569","owner()":"2402","paused()":"2354","pauserCount()":"2384","pausers(address)":"2661","payments(uint32)":"11228","processPayment(uint32)":"65451","removePauser(address)":"54487","reportViolation(string,uint8,uint32,bool,string)":"infinite","reporterViolations(address,uint256)":"6427","submitPayment(uint32,bytes32)":"127842","togglePause()":"26683","updateViolationFine(uint8,uint256)":"28322","violationBaseFines(uint8)":"2593","violationCounter()":"2383","violations(uint32)":"infinite","withdraw()":"infinite"}},"methodIdentifiers":{"addPauser(address)":"82dc1ec4","getBaseFine(uint8)":"37be0eb5","getPaymentStatus(uint32)":"88316447","getReporterViolations(address)":"d877f3d7","getTotalViolations()":"5d9cb8b1","getViolationInfo(uint32)":"206c01e5","isPauser(address)":"46fbf68e","owner()":"8da5cb5b","paused()":"5c975abb","pauserCount()":"3a4bc569","pausers(address)":"80f51c12","payments(uint32)":"f97ea61f","processPayment(uint32)":"d300cedf","removePauser(address)":"6b2c0f55","reportViolation(string,uint8,uint32,bool,string)":"f52b2d2d","reporterViolations(address,uint256)":"02c945a9","submitPayment(uint32,bytes32)":"f5ccffde","togglePause()":"c4ae3168","updateViolationFine(uint8,uint256)":"d2bf402b","violationBaseFines(uint8)":"c001c17a","violationCounter()":"e900aaba","violations(uint32)":"7dd40399","withdraw()":"3ccfd60b"}},"storageLayout":{"storage":[{"astId":24,"contract":"contracts/SimpleViolationHandler.sol:SimpleViolationHandler","label":"owner","offset":0,"slot":"0","type":"t_address"},{"astId":26,"contract":"contracts/SimpleViolationHandler.sol:SimpleViolationHandler","label":"violationCounter","offset":20,"slot":"0","type":"t_uint32"},{"astId":62,"contract":"contracts/SimpleViolationHandler.sol:SimpleViolationHandler","label":"pausers","offset":0,"slot":"1","type":"t_mapping(t_address,t_bool)"},{"astId":64,"contract":"contracts/SimpleViolationHandler.sol:SimpleViolationHandler","label":"pauserCount","offset":0,"slot":"2","type":"t_uint256"},{"astId":69,"contract":"contracts/SimpleViolationHandler.sol:SimpleViolationHandler","label":"violations","offset":0,"slot":"3","type":"t_mapping(t_uint32,t_struct(Violation)47_storage)"},{"astId":74,"contract":"contracts/SimpleViolationHandler.sol:SimpleViolationHandler","label":"payments","offset":0,"slot":"4","type":"t_mapping(t_uint32,t_struct(PaymentRecord)58_storage)"},{"astId":79,"contract":"contracts/SimpleViolationHandler.sol:SimpleViolationHandler","label":"reporterViolations","offset":0,"slot":"5","type":"t_mapping(t_address,t_array(t_uint32)dyn_storage)"},{"astId":83,"contract":"contracts/SimpleViolationHandler.sol:SimpleViolationHandler","label":"violationBaseFines","offset":0,"slot":"6","type":"t_mapping(t_uint8,t_uint256)"},{"astId":171,"contract":"contracts/SimpleViolationHandler.sol:SimpleViolationHandler","label":"paused","offset":0,"slot":"7","type":"t_bool"}],"types":{"t_address":{"encoding":"inplace","label":"address","numberOfBytes":"20"},"t_array(t_uint32)dyn_storage":{"base":"t_uint32","encoding":"dynamic_array","label":"uint32[]","numberOfBytes":"32"},"t_bool":{"encoding":"inplace","label":"bool","numberOfBytes":"1"},"t_bytes32":{"encoding":"inplace","label":"bytes32","numberOfBytes":"32"},"t_mapping(t_address,t_array(t_uint32)dyn_storage)":{"encoding":"mapping","key":"t_address","label":"mapping(address => uint32[])","numberOfBytes":"32","value":"t_array(t_uint32)dyn_storage"},"t_mapping(t_address,t_bool)":{"encoding":"mapping","key":"t_address","label":"mapping(address => bool)","numberOfBytes":"32","value":"t_bool"},"t_mapping(t_uint32,t_struct(PaymentRecord)58_storage)":{"encoding":"mapping","key":"t_uint32","label":"mapping(uint32 => struct SimpleViolationHandler.PaymentRecord)","numberOfBytes":"32","value":"t_struct(PaymentRecord)58_storage"},"t_mapping(t_uint32,t_struct(Violation)47_storage)":{"encoding":"mapping","key":"t_uint32","label":"mapping(uint32 => struct SimpleViolationHandler.Violation)","numberOfBytes":"32","value":"t_struct(Violation)47_storage"},"t_mapping(t_uint8,t_uint256)":{"encoding":"mapping","key":"t_uint8","label":"mapping(uint8 => uint256)","numberOfBytes":"32","value":"t_uint256"},"t_string_storage":{"encoding":"bytes","label":"string","numberOfBytes":"32"},"t_struct(PaymentRecord)58_storage":{"encoding":"inplace","label":"struct SimpleViolationHandler.PaymentRecord","members":[{"astId":49,"contract":"contracts/SimpleViolationHandler.sol:SimpleViolationHandler","label":"paymentId","offset":0,"slot":"0","type":"t_bytes32"},{"astId":51,"contract":"contracts/SimpleViolationHandler.sol:SimpleViolationHandler","label":"paymentAmount","offset":0,"slot":"1","type":"t_uint256"},{"astId":53,"contract":"contracts/SimpleViolationHandler.sol:SimpleViolationHandler","label":"paymentValid","offset":0,"slot":"2","type":"t_bool"},{"astId":55,"contract":"contracts/SimpleViolationHandler.sol:SimpleViolationHandler","label":"timestamp","offset":0,"slot":"3","type":"t_uint256"},{"astId":57,"contract":"contracts/SimpleViolationHandler.sol:SimpleViolationHandler","label":"verified","offset":0,"slot":"4","type":"t_bool"}],"numberOfBytes":"160"},"t_struct(Violation)47_storage":{"encoding":"inplace","label":"struct SimpleViolationHandler.Violation","members":[{"astId":28,"contract":"contracts/SimpleViolationHandler.sol:SimpleViolationHandler","label":"licenseHash","offset":0,"slot":"0","type":"t_bytes32"},{"astId":30,"contract":"contracts/SimpleViolationHandler.sol:SimpleViolationHandler","label":"amount","offset":0,"slot":"1","type":"t_uint256"},{"astId":32,"contract":"contracts/SimpleViolationHandler.sol:SimpleViolationHandler","label":"violationType","offset":0,"slot":"2","type":"t_uint8"},{"astId":34,"contract":"contracts/SimpleViolationHandler.sol:SimpleViolationHandler","label":"severityScore","offset":1,"slot":"2","type":"t_uint32"},{"astId":36,"contract":"contracts/SimpleViolationHandler.sol:SimpleViolationHandler","label":"isRepeat","offset":5,"slot":"2","type":"t_bool"},{"astId":38,"contract":"contracts/SimpleViolationHandler.sol:SimpleViolationHandler","label":"location","offset":0,"slot":"3","type":"t_string_storage"},{"astId":40,"contract":"contracts/SimpleViolationHandler.sol:SimpleViolationHandler","label":"timestamp","offset":0,"slot":"4","type":"t_uint256"},{"astId":42,"contract":"contracts/SimpleViolationHandler.sol:SimpleViolationHandler","label":"isPaid","offset":0,"slot":"5","type":"t_bool"},{"astId":44,"contract":"contracts/SimpleViolationHandler.sol:SimpleViolationHandler","label":"isProcessed","offset":1,"slot":"5","type":"t_bool"},{"astId":46,"contract":"contracts/SimpleViolationHandler.sol:SimpleViolationHandler","label":"reporter","offset":2,"slot":"5","type":"t_address"}],"numberOfBytes":"192"},"t_uint256":{"encoding":"inplace","label":"uint256","numberOfBytes":"32"},"t_uint32":{"encoding":"inplace","label":"uint32","numberOfBytes":"4"},"t_uint8":{"encoding":"inplace","label":"uint8","numberOfBytes":"1"}}},"userdoc":{"kind":"user","methods":{},"notice":"Simplified version for deployment without FHE dependencies","version":1}}}}