{
  "_format": "hh-sol-artifact-1",
  "contractName": "SimpleViolationHandler",
  "sourceName": "contracts/SimpleViolationHandler.sol",
  "abi": [
    {
      "inputs": [],
      "stateMutability": "nonpayable",
      "type": "constructor"
    },
    {
      "inputs": [],
      "name": "AlreadyPaid",
      "type": "error"
    },
    {
      "inputs": [],
      "name": "AlreadyPauser",
      "type": "error"
    },
    {
      "inputs": [],
      "name": "AlreadyProcessed",
      "type": "error"
    },
    {
      "inputs": [],
      "name": "AmountMustBePositive",
      "type": "error"
    },
    {
      "inputs": [],
      "name": "ContractPaused",
      "type": "error"
    },
    {
      "inputs": [],
      "name": "InvalidViolationId",
      "type": "error"
    },
    {
      "inputs": [],
      "name": "InvalidViolationType",
      "type": "error"
    },
    {
      "inputs": [],
      "name": "LocationRequired",
      "type": "error"
    },
    {
      "inputs": [],
      "name": "NotAPauser",
      "type": "error"
    },
    {
      "inputs": [],
      "name": "Unauthorized",
      "type": "error"
    },
    {
      "anonymous": false,
      "inputs": [
        {
          "indexed": false,
          "internalType": "uint8",
          "name": "violationType",
          "type": "uint8"
        },
        {
          "indexed": false,
          "internalType": "uint256",
          "name": "newAmount",
          "type": "uint256"
        }
      ],
      "name": "FineAmountUpdated",
      "type": "event"
    },
    {
      "anonymous": false,
      "inputs": [
        {
          "indexed": true,
          "internalType": "address",
          "name": "pauser",
          "type": "address"
        }
      ],
      "name": "PauserAdded",
      "type": "event"
    },
    {
      "anonymous": false,
      "inputs": [
        {
          "indexed": true,
          "internalType": "address",
          "name": "pauser",
          "type": "address"
        }
      ],
      "name": "PauserRemoved",
      "type": "event"
    },
    {
      "anonymous": false,
      "inputs": [
        {
          "indexed": true,
          "internalType": "uint32",
          "name": "violationId",
          "type": "uint32"
        },
        {
          "indexed": false,
          "internalType": "uint256",
          "name": "timestamp",
          "type": "uint256"
        }
      ],
      "name": "PaymentSubmitted",
      "type": "event"
    },
    {
      "anonymous": false,
      "inputs": [
        {
          "indexed": true,
          "internalType": "uint32",
          "name": "violationId",
          "type": "uint32"
        },
        {
          "indexed": false,
          "internalType": "bool",
          "name": "paymentConfirmed",
          "type": "bool"
        }
      ],
      "name": "ViolationProcessed",
      "type": "event"
    },
    {
      "anonymous": false,
      "inputs": [
        {
          "indexed": true,
          "internalType": "uint32",
          "name": "violationId",
          "type": "uint32"
        },
        {
          "indexed": true,
          "internalType": "address",
          "name": "reporter",
          "type": "address"
        },
        {
          "indexed": false,
          "internalType": "string",
          "name": "location",
          "type": "string"
        }
      ],
      "name": "ViolationReported",
      "type": "event"
    },
    {
      "inputs": [
        {
          "internalType": "address",
          "name": "_pauser",
          "type": "address"
        }
      ],
      "name": "addPauser",
      "outputs": [],
      "stateMutability": "nonpayable",
      "type": "function"
    },
    {
      "inputs": [
        {
          "internalType": "uint8",
          "name": "_violationType",
          "type": "uint8"
        }
      ],
      "name": "getBaseFine",
      "outputs": [
        {
          "internalType": "uint256",
          "name": "",
          "type": "uint256"
        }
      ],
      "stateMutability": "view",
      "type": "function"
    },
    {
      "inputs": [
        {
          "internalType": "uint32",
          "name": "_violationId",
          "type": "uint32"
        }
      ],
      "name": "getPaymentStatus",
      "outputs": [
        {
          "internalType": "uint256",
          "name": "timestamp",
          "type": "uint256"
        },
        {
          "internalType": "bool",
          "name": "verified",
          "type": "bool"
        },
        {
          "internalType": "uint256",
          "name": "amount",
          "type": "uint256"
        }
      ],
      "stateMutability": "view",
      "type": "function"
    },
    {
      "inputs": [
        {
          "internalType": "address",
          "name": "_reporter",
          "type": "address"
        }
      ],
      "name": "getReporterViolations",
      "outputs": [
        {
          "internalType": "uint32[]",
          "name": "",
          "type": "uint32[]"
        }
      ],
      "stateMutability": "view",
      "type": "function"
    },
    {
      "inputs": [],
      "name": "getTotalViolations",
      "outputs": [
        {
          "internalType": "uint32",
          "name": "",
          "type": "uint32"
        }
      ],
      "stateMutability": "view",
      "type": "function"
    },
    {
      "inputs": [
        {
          "internalType": "uint32",
          "name": "_violationId",
          "type": "uint32"
        }
      ],
      "name": "getViolationInfo",
      "outputs": [
        {
          "internalType": "string",
          "name": "location",
          "type": "string"
        },
        {
          "internalType": "uint256",
          "name": "timestamp",
          "type": "uint256"
        },
        {
          "internalType": "bool",
          "name": "isPaid",
          "type": "bool"
        },
        {
          "internalType": "bool",
          "name": "isProcessed",
          "type": "bool"
        },
        {
          "internalType": "address",
          "name": "reporter",
          "type": "address"
        },
        {
          "internalType": "uint256",
          "name": "amount",
          "type": "uint256"
        },
        {
          "internalType": "uint8",
          "name": "violationType",
          "type": "uint8"
        }
      ],
      "stateMutability": "view",
      "type": "function"
    },
    {
      "inputs": [
        {
          "internalType": "address",
          "name": "_address",
          "type": "address"
        }
      ],
      "name": "isPauser",
      "outputs": [
        {
          "internalType": "bool",
          "name": "",
          "type": "bool"
        }
      ],
      "stateMutability": "view",
      "type": "function"
    },
    {
      "inputs": [],
      "name": "owner",
      "outputs": [
        {
          "internalType": "address",
          "name": "",
          "type": "address"
        }
      ],
      "stateMutability": "view",
      "type": "function"
    },
    {
      "inputs": [],
      "name": "paused",
      "outputs": [
        {
          "internalType": "bool",
          "name": "",
          "type": "bool"
        }
      ],
      "stateMutability": "view",
      "type": "function"
    },
    {
      "inputs": [],
      "name": "pauserCount",
      "outputs": [
        {
          "internalType": "uint256",
          "name": "",
          "type": "uint256"
        }
      ],
      "stateMutability": "view",
      "type": "function"
    },
    {
      "inputs": [
        {
          "internalType": "address",
          "name": "",
          "type": "address"
        }
      ],
      "name": "pausers",
      "outputs": [
        {
          "internalType": "bool",
          "name": "",
          "type": "bool"
        }
      ],
      "stateMutability": "view",
      "type": "function"
    },
    {
      "inputs": [
        {
          "internalType": "uint32",
          "name": "",
          "type": "uint32"
        }
      ],
      "name": "payments",
      "outputs": [
        {
          "internalType": "bytes32",
          "name": "paymentId",
          "type": "bytes32"
        },
        {
          "internalType": "uint256",
          "name": "paymentAmount",
          "type": "uint256"
        },
        {
          "internalType": "bool",
          "name": "paymentValid",
          "type": "bool"
        },
        {
          "internalType": "uint256",
          "name": "timestamp",
          "type": "uint256"
        },
        {
          "internalType": "bool",
          "name": "verified",
          "type": "bool"
        }
      ],
      "stateMutability": "view",
      "type": "function"
    },
    {
      "inputs": [
        {
          "internalType": "uint32",
          "name": "_violationId",
          "type": "uint32"
        }
      ],
      "name": "processPayment",
      "outputs": [],
      "stateMutability": "nonpayable",
      "type": "function"
    },
    {
      "inputs": [
        {
          "internalType": "address",
          "name": "_pauser",
          "type": "address"
        }
      ],
      "name": "removePauser",
      "outputs": [],
      "stateMutability": "nonpayable",
      "type": "function"
    },
    {
      "inputs": [
        {
          "internalType": "string",
          "name": "_licensePlate",
          "type": "string"
        },
        {
          "internalType": "uint8",
          "name": "_violationType",
          "type": "uint8"
        },
        {
          "internalType": "uint32",
          "name": "_severityScore",
          "type": "uint32"
        },
        {
          "internalType": "bool",
          "name": "_isRepeatOffender",
          "type": "bool"
        },
        {
          "internalType": "string",
          "name": "_location",
          "type": "string"
        }
      ],
      "name": "reportViolation",
      "outputs": [
        {
          "internalType": "uint32",
          "name": "",
          "type": "uint32"
        }
      ],
      "stateMutability": "nonpayable",
      "type": "function"
    },
    {
      "inputs": [
        {
          "internalType": "address",
          "name": "",
          "type": "address"
        },
        {
          "internalType": "uint256",
          "name": "",
          "type": "uint256"
        }
      ],
      "name": "reporterViolations",
      "outputs": [
        {
          "internalType": "uint32",
          "name": "",
          "type": "uint32"
        }
      ],
      "stateMutability": "view",
      "type": "function"
    },
    {
      "inputs": [
        {
          "internalType": "uint32",
          "name": "_violationId",
          "type": "uint32"
        },
        {
          "internalType": "bytes32",
          "name": "_paymentId",
          "type": "bytes32"
        }
      ],
      "name": "submitPayment",
      "outputs": [],
      "stateMutability": "payable",
      "type": "function"
    },
    {
      "inputs": [],
      "name": "togglePause",
      "outputs": [],
      "stateMutability": "nonpayable",
      "type": "function"
    },
    {
      "inputs": [
        {
          "internalType": "uint8",
          "name": "_violationType",
          "type": "uint8"
        },
        {
          "internalType": "uint256",
          "name": "_newAmount",
          "type": "uint256"
        }
      ],
      "name": "updateViolationFine",
      "outputs": [],
      "stateMutability": "nonpayable",
      "type": "function"
    },
    {
      "inputs": [
        {
          "internalType": "uint8",
          "name": "",
          "type": "uint8"
        }
      ],
      "name": "violationBaseFines",
      "outputs": [
        {
          "internalType": "uint256",
          "name": "",
          "type": "uint256"
        }
      ],
      "stateMutability": "view",
      "type": "function"
    },
    {
      "inputs": [],
      "name": "violationCounter",
      "outputs": [
        {
          "internalType": "uint32",
          "name": "",
          "type": "uint32"
        }
      ],
      "stateMutability": "view",
      "type": "function"
    },
    {
      "inputs": [
        {
          "internalType": "uint32",
          "name": "",
          "type": "uint32"
        }
      ],
      "name": "violations",
      "outputs": [
        {
          "internalType": "bytes32",
          "name": "licenseHash",
          "type": "bytes32"
        },
        {
          "internalType": "uint256",
          "name": "amount",
          "type": "uint256"
        },
        {
          "internalType": "uint8",
          "name": "violationType",
          "type": "uint8"
        },
        {
          "internalType": "uint32",
          "name": "severityScore",
          "type": "uint32"
        },
        {
          "internalType": "bool",
          "name": "isRepeat",
          "type": "bool"
        },
        {
          "internalType": "string",
          "name": "location",
          "type": "string"
        },
        {
          "internalType": "uint256",
          "name": "timestamp",
          "type": "uint256"
        },
        {
          "internalType": "bool",
          "name": "isPaid",
          "type": "bool"
        },
        {
          "internalType": "bool",
          "name": "isProcessed",
          "type": "bool"
        },
        {
          "internalType": "address",
          "name": "reporter",
          "type": "address"
        }
      ],
      "stateMutability": "view",
      "type": "function"
    },
    {
      "inputs": [],
      "name": "withdraw",
      "outputs": [],
      "stateMutability": "nonpayable",
      "type": "function"
    },
    {
      "stateMutability": "payable",
      "type": "receive"
    }
  ],
  "bytecode": "0x60806040526007805460ff19169055348015610019575f80fd5b505f80546001600160c01b0319163363ffffffff60a01b19811691909117825581526001602081815260408320805460ff1916831790556002919091556006905266038d7ea4c680007f3e5fec24aa4dc4e5aee2e025e51e1392c72a2500577559fae9665c6d52bd6a318190556601c6bf526340007f8819ef417987f8ae7a81f42cdfb18815282fe989326fbff903d13cf0e03ace295566071afd498d00007f75f96ab15d697e93042dc45b5c896c4b27e89bb6eaf39475c5c371cb2513f7d2557fc5069e24aaadb2addc3e52e868fcf3f4f8acf5a87e24300992fd4540c2a87eed556005815266044364c5bb00007fbfd358e93f18da3ed276c3afdbdba00b8f0b6008a03476a6a86bd6320ee6938b5561192f90819061013990395ff3fe60806040526004361061013f575f3560e01c806382dc1ec4116100b3578063d300cedf1161006d578063d300cedf146103fc578063d877f3d71461041b578063e900aaba14610447578063f52b2d2d14610469578063f5ccffde14610488578063f97ea61f1461049b575f80fd5b806382dc1ec41461030f578063883164471461032e5780638da5cb5b14610368578063c001c17a1461039e578063c4ae3168146103c9578063d2bf402b146103dd575f80fd5b806346fbf68e1161010457806346fbf68e1461020d5780635c975abb146102545780635d9cb8b11461026d5780636b2c0f551461028d5780637dd40399146102ac57806380f51c12146102e1575f80fd5b806302c945a91461014a578063206c01e51461018357806337be0eb5146101b55780633a4bc569146101e25780633ccfd60b146101f7575f80fd5b3661014657005b5f80fd5b348015610155575f80fd5b5061016961016436600461134c565b61051c565b60405163ffffffff90911681526020015b60405180910390f35b34801561018e575f80fd5b506101a261019d366004611387565b610560565b60405161017a97969594939291906113f4565b3480156101c0575f80fd5b506101d46101cf366004611453565b6106a7565b60405190815260200161017a565b3480156101ed575f80fd5b506101d460025481565b348015610202575f80fd5b5061020b6106f0565b005b348015610218575f80fd5b5061024461022736600461146c565b6001600160a01b03165f9081526001602052604090205460ff1690565b604051901515815260200161017a565b34801561025f575f80fd5b506007546102449060ff1681565b348015610278575f80fd5b505f54600160a01b900463ffffffff16610169565b348015610298575f80fd5b5061020b6102a736600461146c565b6107b6565b3480156102b7575f80fd5b506102cb6102c6366004611387565b61087f565b60405161017a9a99989796959493929190611485565b3480156102ec575f80fd5b506102446102fb36600461146c565b60016020525f908152604090205460ff1681565b34801561031a575f80fd5b5061020b61032936600461146c565b610976565b348015610339575f80fd5b5061034d610348366004611387565b610a45565b6040805193845291151560208401529082015260600161017a565b348015610373575f80fd5b505f54610386906001600160a01b031681565b6040516001600160a01b03909116815260200161017a565b3480156103a9575f80fd5b506101d46103b8366004611453565b60066020525f908152604090205481565b3480156103d4575f80fd5b5061020b610abf565b3480156103e8575f80fd5b5061020b6103f73660046114f6565b610b02565b348015610407575f80fd5b5061020b610416366004611387565b610bf3565b348015610426575f80fd5b5061043a61043536600461146c565b610d84565b60405161017a9190611510565b348015610452575f80fd5b505f5461016990600160a01b900463ffffffff1681565b348015610474575f80fd5b506101696104833660046115f6565b610e18565b61020b61049636600461168e565b611189565b3480156104a6575f80fd5b506104eb6104b5366004611387565b600460208190525f9182526040909120805460018201546002830154600384015493909401549193909260ff9182169290911685565b60405161017a9594939291909485526020850193909352901515604084015260608301521515608082015260a00190565b6005602052815f5260405f208181548110610535575f80fd5b905f5260205f209060089182820401919006600402915091509054906101000a900463ffffffff1681565b60605f80808080808763ffffffff8116158061058d57505f5463ffffffff600160a01b9091048116908216115b156105ab57604051630d31339b60e11b815260040160405180910390fd5b63ffffffff89165f908152600360208190526040909120600481015460058201546001830154600284015494840180549495909460ff808516946101008104821694620100009091046001600160a01b0316939092911690879061060e906116a8565b80601f016020809104026020016040519081016040528092919081815260200182805461063a906116a8565b80156106855780601f1061065c57610100808354040283529160200191610685565b820191905f5260205f20905b81548152906001019060200180831161066857829003601f168201915b5050505050965098509850985098509850985098505050919395979092949650565b5f60018260ff1610806106bd575060058260ff16115b156106db5760405163dbf4a40960e01b815260040160405180910390fd5b5060ff165f9081526006602052604090205490565b5f546001600160a01b03163314610719576040516282b42960e81b815260040160405180910390fd5b5f80546040514792916001600160a01b03169083908381818185875af1925050503d805f8114610764576040519150601f19603f3d011682016040523d82523d5f602084013e610769565b606091505b50509050806107b25760405162461bcd60e51b815260206004820152601160248201527015da5d1a191c985dd85b0819985a5b1959607a1b604482015260640160405180910390fd5b5050565b5f546001600160a01b031633146107df576040516282b42960e81b815260040160405180910390fd5b6001600160a01b0381165f9081526001602052604090205460ff16610817576040516318e3400d60e01b815260040160405180910390fd5b6001600160a01b0381165f908152600160205260408120805460ff191690556002805491610844836116f4565b90915550506040516001600160a01b038216907fcd265ebaf09df2871cc7bd4133404a235ba12eff2041bb89d9c714a2621c7c7e905f90a250565b600360208190525f918252604090912080546001820154600283015493830180549294919360ff8084169463ffffffff6101008604169465010000000000900490911692906108cd906116a8565b80601f01602080910402602001604051908101604052809291908181526020018280546108f9906116a8565b80156109445780601f1061091b57610100808354040283529160200191610944565b820191905f5260205f20905b81548152906001019060200180831161092757829003601f168201915b50505050600483015460059093015491929160ff8082169250610100820416906201000090046001600160a01b03168a565b5f546001600160a01b0316331461099f576040516282b42960e81b815260040160405180910390fd5b6001600160a01b0381165f9081526001602052604090205460ff16156109d85760405163070dddf760e01b815260040160405180910390fd5b6001600160a01b0381165f9081526001602081905260408220805460ff191690911790556002805491610a0a83611709565b90915550506040516001600160a01b038216907f6719d08c1888103bea251a4ed56406bd0c3e69723c8a1686e017e7bbe159b6f8905f90a250565b5f80808363ffffffff81161580610a6d57505f5463ffffffff600160a01b9091048116908216115b15610a8b57604051630d31339b60e11b815260040160405180910390fd5b5050505063ffffffff165f908152600460208190526040909120600381015491810154600190910154919260ff9091169190565b335f9081526001602052604090205460ff16610aee576040516318e3400d60e01b815260040160405180910390fd5b6007805460ff19811660ff90911615179055565b5f546001600160a01b03163314610b2b576040516282b42960e81b815260040160405180910390fd5b60075460ff1615610b4f5760405163ab35696f60e01b815260040160405180910390fd5b60018260ff161080610b64575060058260ff16115b15610b825760405163dbf4a40960e01b815260040160405180910390fd5b805f03610ba257604051632e11316f60e11b815260040160405180910390fd5b60ff82165f81815260066020908152604091829020849055815192835282018390527f69edbdf6e9ddd0f73ba21b03762562c07e99a8b1a24cbf65f7b4035b9058c8a5910160405180910390a15050565b5f546001600160a01b03163314610c1c576040516282b42960e81b815260040160405180910390fd5b8063ffffffff81161580610c4157505f5463ffffffff600160a01b9091048116908216115b15610c5f57604051630d31339b60e11b815260040160405180910390fd5b60075460ff1615610c835760405163ab35696f60e01b815260040160405180910390fd5b63ffffffff82165f90815260036020526040902060050154610100900460ff1615610cc157604051632bf773b360e11b815260040160405180910390fd5b63ffffffff82165f9081526004602052604081206003810154909103610cfa57604051630d31339b60e11b815260040160405180910390fd5b60028101805463ffffffff85165f81815260036020908152604091829020600501805461010061ffff1990911660ff968716151561ff00191617179055935460048601805460ff191691909416151590811790935551918252917fc2150472c60ae102e4a1bd9e9c86af0f19cdab9b534386d564f434646c8f0fd7910160405180910390a2505050565b6001600160a01b0381165f90815260056020908152604091829020805483518184028101840190945280845260609392830182828015610e0c57602002820191905f5260205f20905f905b82829054906101000a900463ffffffff1663ffffffff1681526020019060040190602082600301049283019260010382029150808411610dcf5790505b50505050509050919050565b6007545f9060ff1615610e3e5760405163ab35696f60e01b815260040160405180910390fd5b81515f03610e5f57604051637392b08560e01b815260040160405180910390fd5b60018560ff161080610e74575060058560ff16115b15610e925760405163dbf4a40960e01b815260040160405180910390fd5b5f8054600160a01b900463ffffffff16906014610eae83611721565b91906101000a81548163ffffffff021916908363ffffffff160217905550505f864233604051602001610ee393929190611743565b60408051601f19818403018152918152815160209283012060ff89165f90815260069093529082205490925090610f1b87606461177b565b63ffffffff1690505f6064610f30838561179f565b610f3a91906117bc565b90505f87610f485781610f53565b610f5382600261179f565b90506040518061014001604052808681526020018281526020018b60ff1681526020018a63ffffffff16815260200189151581526020018881526020014281526020015f151581526020015f15158152602001336001600160a01b031681525060035f8060149054906101000a900463ffffffff1663ffffffff1663ffffffff1681526020019081526020015f205f820151815f0155602082015181600101556040820151816002015f6101000a81548160ff021916908360ff16021790555060608201518160020160016101000a81548163ffffffff021916908363ffffffff16021790555060808201518160020160056101000a81548160ff02191690831515021790555060a082015181600301908161106f9190611827565b5060c082015160048083019190915560e08301516005928301805461010080870151610120909701516001600160a01b0316620100000262010000600160b01b0319971515820261ff00199515159590951661ffff1990931692909217939093179590951694909417909355335f818152602093845260408082208254815460018101835591845295832060088204018054600790921690950290960a63ffffffff600160a01b96879004811682029181021990971617909355549151909392909104909116907f5a0b534455413e0b81046b4a3435d4bd18962c6e157b0f544cd1b8a773ffc94c90611163908b906118e7565b60405180910390a350505f54600160a01b900463ffffffff169998505050505050505050565b8163ffffffff811615806111ae57505f5463ffffffff600160a01b9091048116908216115b156111cc57604051630d31339b60e11b815260040160405180910390fd5b60075460ff16156111f05760405163ab35696f60e01b815260040160405180910390fd5b63ffffffff83165f9081526003602052604090206005015460ff161561122957604051630d70a0e360e41b815260040160405180910390fd5b63ffffffff83165f90815260036020526040902060050154610100900460ff161561126757604051632bf773b360e11b815260040160405180910390fd5b63ffffffff83165f818152600360208181526040808420600190810154825160a08101845289815234818601818152908311158286018181524260608501818152608086018c81528d8d526004808c529c8a902096518755945197860197909755905160028501805491151560ff1992831617905595519884019890985590519190970180549115159190931617909155905192835293917f751f179b9382790840ef56f51b05851a66cb4dd7272748adaacd378b6467f26f910160405180910390a25050505050565b80356001600160a01b0381168114611347575f80fd5b919050565b5f806040838503121561135d575f80fd5b61136683611331565b946020939093013593505050565b803563ffffffff81168114611347575f80fd5b5f60208284031215611397575f80fd5b6113a082611374565b9392505050565b5f5b838110156113c15781810151838201526020016113a9565b50505f910152565b5f81518084526113e08160208601602086016113a7565b601f01601f19169290920160200192915050565b60e081525f61140660e083018a6113c9565b602083019890985250941515604086015292151560608501526001600160a01b0391909116608084015260a083015260ff1660c090910152919050565b803560ff81168114611347575f80fd5b5f60208284031215611463575f80fd5b6113a082611443565b5f6020828403121561147c575f80fd5b6113a082611331565b5f6101408c83528b602084015260ff8b16604084015263ffffffff8a16606084015288151560808401528060a08401526114c1818401896113c9565b60c0840197909752505092151560e08401529015156101008301526001600160a01b0316610120909101529695505050505050565b5f8060408385031215611507575f80fd5b61136683611443565b602080825282518282018190525f9190848201906040850190845b8181101561154d57835163ffffffff168352928401929184019160010161152b565b50909695505050505050565b634e487b7160e01b5f52604160045260245ffd5b5f82601f83011261157c575f80fd5b813567ffffffffffffffff8082111561159757611597611559565b604051601f8301601f19908116603f011681019082821181831017156115bf576115bf611559565b816040528381528660208588010111156115d7575f80fd5b836020870160208301375f602085830101528094505050505092915050565b5f805f805f60a0868803121561160a575f80fd5b853567ffffffffffffffff80821115611621575f80fd5b61162d89838a0161156d565b965061163b60208901611443565b955061164960408901611374565b945060608801359150811515821461165f575f80fd5b90925060808701359080821115611674575f80fd5b506116818882890161156d565b9150509295509295909350565b5f806040838503121561169f575f80fd5b61136683611374565b600181811c908216806116bc57607f821691505b6020821081036116da57634e487b7160e01b5f52602260045260245ffd5b50919050565b634e487b7160e01b5f52601160045260245ffd5b5f81611702576117026116e0565b505f190190565b5f6001820161171a5761171a6116e0565b5060010190565b5f63ffffffff808316818103611739576117396116e0565b6001019392505050565b5f84516117548184602089016113a7565b919091019283525060601b6bffffffffffffffffffffffff19166020820152603401919050565b63ffffffff818116838216019080821115611798576117986116e0565b5092915050565b80820281158282048414176117b6576117b66116e0565b92915050565b5f826117d657634e487b7160e01b5f52601260045260245ffd5b500490565b601f82111561182257805f5260205f20601f840160051c810160208510156118005750805b601f840160051c820191505b8181101561181f575f815560010161180c565b50505b505050565b815167ffffffffffffffff81111561184157611841611559565b6118558161184f84546116a8565b846117db565b602080601f831160018114611888575f84156118715750858301515b5f19600386901b1c1916600185901b1785556118df565b5f85815260208120601f198616915b828110156118b657888601518255948401946001909101908401611897565b50858210156118d357878501515f19600388901b60f8161c191681555b505060018460011b0185555b505050505050565b602081525f6113a060208301846113c956fea26469706673582212208a549d724985f2a53937b14d613d62f8fb360f4c1f304cba39101081b831095064736f6c63430008180033",
  "linkReferences": {},
  "deployedLinkReferences": {}
}